{
  "contractName": "MarriageContract",
  "abi": [
    {
      "inputs": [
        {
          "internalType": "address",
          "name": "_spouse1",
          "type": "address"
        },
        {
          "internalType": "address",
          "name": "_spouse2",
          "type": "address"
        }
      ],
      "stateMutability": "nonpayable",
      "type": "constructor"
    },
    {
      "anonymous": false,
      "inputs": [
        {
          "indexed": false,
          "internalType": "string",
          "name": "name",
          "type": "string"
        },
        {
          "indexed": false,
          "internalType": "uint256",
          "name": "value",
          "type": "uint256"
        },
        {
          "indexed": false,
          "internalType": "bool",
          "name": "isTokenized",
          "type": "bool"
        },
        {
          "indexed": true,
          "internalType": "address",
          "name": "owner",
          "type": "address"
        }
      ],
      "name": "AssetAdded",
      "type": "event"
    },
    {
      "anonymous": false,
      "inputs": [
        {
          "indexed": false,
          "internalType": "string",
          "name": "name",
          "type": "string"
        },
        {
          "indexed": true,
          "internalType": "address",
          "name": "newOwner",
          "type": "address"
        }
      ],
      "name": "AssetTransferred",
      "type": "event"
    },
    {
      "anonymous": false,
      "inputs": [
        {
          "indexed": true,
          "internalType": "address",
          "name": "spouse1",
          "type": "address"
        },
        {
          "indexed": true,
          "internalType": "address",
          "name": "spouse2",
          "type": "address"
        },
        {
          "indexed": false,
          "internalType": "uint256",
          "name": "spouse1Share",
          "type": "uint256"
        },
        {
          "indexed": false,
          "internalType": "uint256",
          "name": "spouse2Share",
          "type": "uint256"
        }
      ],
      "name": "Divorce",
      "type": "event"
    },
    {
      "anonymous": false,
      "inputs": [
        {
          "indexed": true,
          "internalType": "address",
          "name": "spouse",
          "type": "address"
        }
      ],
      "name": "DivorceInitiated",
      "type": "event"
    },
    {
      "anonymous": false,
      "inputs": [
        {
          "indexed": true,
          "internalType": "address",
          "name": "spouse1",
          "type": "address"
        },
        {
          "indexed": true,
          "internalType": "address",
          "name": "spouse2",
          "type": "address"
        }
      ],
      "name": "Marriage",
      "type": "event"
    },
    {
      "inputs": [
        {
          "internalType": "uint256",
          "name": "",
          "type": "uint256"
        }
      ],
      "name": "assets",
      "outputs": [
        {
          "internalType": "string",
          "name": "name",
          "type": "string"
        },
        {
          "internalType": "uint256",
          "name": "value",
          "type": "uint256"
        },
        {
          "internalType": "bool",
          "name": "isTokenized",
          "type": "bool"
        },
        {
          "internalType": "address",
          "name": "owner",
          "type": "address"
        }
      ],
      "stateMutability": "view",
      "type": "function",
      "constant": true
    },
    {
      "inputs": [],
      "name": "isMarried",
      "outputs": [
        {
          "internalType": "bool",
          "name": "",
          "type": "bool"
        }
      ],
      "stateMutability": "view",
      "type": "function",
      "constant": true
    },
    {
      "inputs": [
        {
          "internalType": "address",
          "name": "",
          "type": "address"
        },
        {
          "internalType": "uint256",
          "name": "",
          "type": "uint256"
        }
      ],
      "name": "ownerAssets",
      "outputs": [
        {
          "internalType": "uint256",
          "name": "",
          "type": "uint256"
        }
      ],
      "stateMutability": "view",
      "type": "function",
      "constant": true
    },
    {
      "inputs": [],
      "name": "spouse1",
      "outputs": [
        {
          "internalType": "address",
          "name": "",
          "type": "address"
        }
      ],
      "stateMutability": "view",
      "type": "function",
      "constant": true
    },
    {
      "inputs": [],
      "name": "spouse2",
      "outputs": [
        {
          "internalType": "address",
          "name": "",
          "type": "address"
        }
      ],
      "stateMutability": "view",
      "type": "function",
      "constant": true
    },
    {
      "inputs": [
        {
          "internalType": "string",
          "name": "name",
          "type": "string"
        },
        {
          "internalType": "uint256",
          "name": "value",
          "type": "uint256"
        },
        {
          "internalType": "bool",
          "name": "isTokenized",
          "type": "bool"
        },
        {
          "internalType": "address",
          "name": "owner",
          "type": "address"
        }
      ],
      "name": "addAsset",
      "outputs": [],
      "stateMutability": "nonpayable",
      "type": "function"
    },
    {
      "inputs": [
        {
          "internalType": "uint256",
          "name": "assetIndex",
          "type": "uint256"
        },
        {
          "internalType": "address",
          "name": "newOwner",
          "type": "address"
        }
      ],
      "name": "transferAsset",
      "outputs": [],
      "stateMutability": "nonpayable",
      "type": "function"
    },
    {
      "inputs": [],
      "name": "initiateDivorce",
      "outputs": [],
      "stateMutability": "nonpayable",
      "type": "function"
    },
    {
      "inputs": [
        {
          "internalType": "string",
          "name": "method",
          "type": "string"
        }
      ],
      "name": "distributeAssets",
      "outputs": [],
      "stateMutability": "nonpayable",
      "type": "function"
    },
    {
      "inputs": [
        {
          "internalType": "address",
          "name": "owner",
          "type": "address"
        }
      ],
      "name": "getAssetsByOwner",
      "outputs": [
        {
          "internalType": "uint256[]",
          "name": "",
          "type": "uint256[]"
        }
      ],
      "stateMutability": "view",
      "type": "function",
      "constant": true
    },
    {
      "inputs": [
        {
          "internalType": "uint256",
          "name": "assetIndex",
          "type": "uint256"
        }
      ],
      "name": "getAssetDetails",
      "outputs": [
        {
          "internalType": "string",
          "name": "name",
          "type": "string"
        },
        {
          "internalType": "uint256",
          "name": "value",
          "type": "uint256"
        },
        {
          "internalType": "bool",
          "name": "isTokenized",
          "type": "bool"
        },
        {
          "internalType": "address",
          "name": "owner",
          "type": "address"
        }
      ],
      "stateMutability": "view",
      "type": "function",
      "constant": true
    },
    {
      "inputs": [],
      "name": "getAssetsCount",
      "outputs": [
        {
          "internalType": "uint256",
          "name": "",
          "type": "uint256"
        }
      ],
      "stateMutability": "view",
      "type": "function",
      "constant": true
    }
  ],
  "bytecode": "0x608060405234801562000010575f80fd5b50604051620029c3380380620029c38339818101604052810190620000369190620001d6565b815f806101000a81548173ffffffffffffffffffffffffffffffffffffffff021916908373ffffffffffffffffffffffffffffffffffffffff1602179055508060015f6101000a81548173ffffffffffffffffffffffffffffffffffffffff021916908373ffffffffffffffffffffffffffffffffffffffff16021790555060018060146101000a81548160ff02191690831515021790555060015f9054906101000a900473ffffffffffffffffffffffffffffffffffffffff1673ffffffffffffffffffffffffffffffffffffffff165f8054906101000a900473ffffffffffffffffffffffffffffffffffffffff1673ffffffffffffffffffffffffffffffffffffffff167f1f06687311f13f3dbfbf7d72190a1d600769ed13ca058bce01da65315016a2b460405160405180910390a350506200021b565b5f80fd5b5f73ffffffffffffffffffffffffffffffffffffffff82169050919050565b5f620001a08262000175565b9050919050565b620001b28162000194565b8114620001bd575f80fd5b50565b5f81519050620001d081620001a7565b92915050565b5f8060408385031215620001ef57620001ee62000171565b5b5f620001fe85828601620001c0565b92505060206200021185828601620001c0565b9150509250929050565b61279a80620002295f395ff3fe608060405234801561000f575f80fd5b50600436106100b2575f3560e01c8063a1f24b3d1161006f578063a1f24b3d1461018a578063a702314d146101bd578063cf35bdd0146101db578063dd36d6a51461020e578063fa62ee8d14610218578063fb6a90f814610234576100b2565b80630aac5dfd146100b6578063276f0934146100d4578063455bd951146101045780634d4cb9851461013457806353605f48146101505780639043a5081461016e575b5f80fd5b6100be610252565b6040516100cb9190611877565b60405180910390f35b6100ee60048036038101906100e991906118fb565b61025e565b6040516100fb91906119dd565b60405180910390f35b61011e60048036038101906101199190611a27565b6102f1565b60405161012b9190611877565b60405180910390f35b61014e60048036038101906101499190611ba1565b61031c565b005b6101586105e3565b6040516101659190611bf7565b60405180910390f35b61018860048036038101906101839190611c45565b610608565b005b6101a4600480360381019061019f9190611cc5565b6108f1565b6040516101b49493929190611d79565b60405180910390f35b6101c5610a97565b6040516101d29190611dc3565b60405180910390f35b6101f560048036038101906101f09190611cc5565b610aaa565b6040516102059493929190611d79565b60405180910390f35b610216610b97565b005b610232600480360381019061022d9190611ddc565b610d29565b005b61023c611002565b6040516102499190611bf7565b60405180910390f35b5f600280549050905090565b606060035f8373ffffffffffffffffffffffffffffffffffffffff1673ffffffffffffffffffffffffffffffffffffffff1681526020019081526020015f208054806020026020016040519081016040528092919081815260200182805480156102e557602002820191905f5260205f20905b8154815260200190600101908083116102d1575b50505050509050919050565b6003602052815f5260405f20818154811061030a575f80fd5b905f5260205f20015f91509150505481565b5f8054906101000a900473ffffffffffffffffffffffffffffffffffffffff1673ffffffffffffffffffffffffffffffffffffffff163373ffffffffffffffffffffffffffffffffffffffff1614806103c1575060015f9054906101000a900473ffffffffffffffffffffffffffffffffffffffff1673ffffffffffffffffffffffffffffffffffffffff163373ffffffffffffffffffffffffffffffffffffffff16145b610400576040517f08c379a00000000000000000000000000000000000000000000000000000000081526004016103f790611e64565b60405180910390fd5b600160149054906101000a900460ff1615610450576040517f08c379a000000000000000000000000000000000000000000000000000000000815260040161044790611ef2565b60405180910390fd5b5f610459611025565b90505f811161049d576040517f08c379a000000000000000000000000000000000000000000000000000000000815260040161049490611f80565b60405180910390fd5b6040518060400160405280600581526020017f657175616c000000000000000000000000000000000000000000000000000000815250805190602001208280519060200120036104f4576104ef611080565b6105df565b6040518060400160405280600c81526020017f70726f706f7274696f6e616c00000000000000000000000000000000000000008152508051906020012082805190602001200361054b5761054661132f565b6105de565b6040518060400160405280600981526020017f6f776e6572736869700000000000000000000000000000000000000000000000815250805190602001208280519060200120036105a25761059d6115fa565b6105dd565b6040517f08c379a00000000000000000000000000000000000000000000000000000000081526004016105d490611fe8565b60405180910390fd5b5b5b5050565b60015f9054906101000a900473ffffffffffffffffffffffffffffffffffffffff1681565b5f8054906101000a900473ffffffffffffffffffffffffffffffffffffffff1673ffffffffffffffffffffffffffffffffffffffff163373ffffffffffffffffffffffffffffffffffffffff1614806106ad575060015f9054906101000a900473ffffffffffffffffffffffffffffffffffffffff1673ffffffffffffffffffffffffffffffffffffffff163373ffffffffffffffffffffffffffffffffffffffff16145b6106ec576040517f08c379a00000000000000000000000000000000000000000000000000000000081526004016106e390611e64565b60405180910390fd5b600160149054906101000a900460ff1661073b576040517f08c379a000000000000000000000000000000000000000000000000000000000815260040161073290612076565b60405180910390fd5b5f604051806080016040528086815260200185815260200184151581526020018373ffffffffffffffffffffffffffffffffffffffff168152509050600281908060018154018082558091505060019003905f5260205f2090600302015f909190919091505f820151815f0190816107b3919061228e565b50602082015181600101556040820151816002015f6101000a81548160ff02191690831515021790555060608201518160020160016101000a81548173ffffffffffffffffffffffffffffffffffffffff021916908373ffffffffffffffffffffffffffffffffffffffff160217905550505060035f8373ffffffffffffffffffffffffffffffffffffffff1673ffffffffffffffffffffffffffffffffffffffff1681526020019081526020015f206001600280549050610875919061238a565b908060018154018082558091505060019003905f5260205f20015f90919091909150558173ffffffffffffffffffffffffffffffffffffffff167fb69ee633e44efc83a2a42766fd6dc214c73784d0f7c51020cc6a59f20e19ba268686866040516108e2939291906123bd565b60405180910390a25050505050565b60605f805f600280549050851061093d576040517f08c379a000000000000000000000000000000000000000000000000000000000815260040161093490612443565b60405180910390fd5b5f6002868154811061095257610951612461565b5b905f5260205f2090600302016040518060800160405290815f82018054610978906120c1565b80601f01602080910402602001604051908101604052809291908181526020018280546109a4906120c1565b80156109ef5780601f106109c6576101008083540402835291602001916109ef565b820191905f5260205f20905b8154815290600101906020018083116109d257829003601f168201915b5050505050815260200160018201548152602001600282015f9054906101000a900460ff161515151581526020016002820160019054906101000a900473ffffffffffffffffffffffffffffffffffffffff1673ffffffffffffffffffffffffffffffffffffffff1673ffffffffffffffffffffffffffffffffffffffff16815250509050805f01518160200151826040015183606001519450945094509450509193509193565b600160149054906101000a900460ff1681565b60028181548110610ab9575f80fd5b905f5260205f2090600302015f91509050805f018054610ad8906120c1565b80601f0160208091040260200160405190810160405280929190818152602001828054610b04906120c1565b8015610b4f5780601f10610b2657610100808354040283529160200191610b4f565b820191905f5260205f20905b815481529060010190602001808311610b3257829003601f168201915b505050505090806001015490806002015f9054906101000a900460ff16908060020160019054906101000a900473ffffffffffffffffffffffffffffffffffffffff16905084565b5f8054906101000a900473ffffffffffffffffffffffffffffffffffffffff1673ffffffffffffffffffffffffffffffffffffffff163373ffffffffffffffffffffffffffffffffffffffff161480610c3c575060015f9054906101000a900473ffffffffffffffffffffffffffffffffffffffff1673ffffffffffffffffffffffffffffffffffffffff163373ffffffffffffffffffffffffffffffffffffffff16145b610c7b576040517f08c379a0000000000000000000000000000000000000000000000000000000008152600401610c7290611e64565b60405180910390fd5b600160149054906101000a900460ff16610cca576040517f08c379a0000000000000000000000000000000000000000000000000000000008152600401610cc1906124fe565b60405180910390fd5b5f600160146101000a81548160ff0219169083151502179055503373ffffffffffffffffffffffffffffffffffffffff167fd7cd4e5586cc81696a25f9f8984878b2ba504039d968729d346d89826ce8887060405160405180910390a2565b5f8054906101000a900473ffffffffffffffffffffffffffffffffffffffff1673ffffffffffffffffffffffffffffffffffffffff163373ffffffffffffffffffffffffffffffffffffffff161480610dce575060015f9054906101000a900473ffffffffffffffffffffffffffffffffffffffff1673ffffffffffffffffffffffffffffffffffffffff163373ffffffffffffffffffffffffffffffffffffffff16145b610e0d576040517f08c379a0000000000000000000000000000000000000000000000000000000008152600401610e0490611e64565b60405180910390fd5b6002805490508210610e54576040517f08c379a0000000000000000000000000000000000000000000000000000000008152600401610e4b90612443565b60405180910390fd5b5f60028381548110610e6957610e68612461565b5b905f5260205f20906003020190503373ffffffffffffffffffffffffffffffffffffffff168160020160019054906101000a900473ffffffffffffffffffffffffffffffffffffffff1673ffffffffffffffffffffffffffffffffffffffff1614610f09576040517f08c379a0000000000000000000000000000000000000000000000000000000008152600401610f0090612566565b60405180910390fd5b818160020160016101000a81548173ffffffffffffffffffffffffffffffffffffffff021916908373ffffffffffffffffffffffffffffffffffffffff16021790555060035f8373ffffffffffffffffffffffffffffffffffffffff1673ffffffffffffffffffffffffffffffffffffffff1681526020019081526020015f2083908060018154018082558091505060019003905f5260205f20015f90919091909150558173ffffffffffffffffffffffffffffffffffffffff167feb5476790d1d39c8b19dd28e329f20439f6b16bc912c68590eab27cbd4466b2c825f01604051610ff59190612605565b60405180910390a2505050565b5f8054906101000a900473ffffffffffffffffffffffffffffffffffffffff1681565b5f805f90505b60028054905081101561107c576002818154811061104c5761104b612461565b5b905f5260205f20906003020160010154826110679190612625565b9150808061107490612658565b91505061102b565b5090565b5f611089611025565b90505f60028261109991906126cc565b90505f805f5b6002805490508110156112815783831080156110ba57508382105b1561126e57818311156110ee5760015f9054906101000a900473ffffffffffffffffffffffffffffffffffffffff1661110f565b5f8054906101000a900473ffffffffffffffffffffffffffffffffffffffff165b6002828154811061112357611122612461565b5b905f5260205f20906003020160020160016101000a81548173ffffffffffffffffffffffffffffffffffffffff021916908373ffffffffffffffffffffffffffffffffffffffff1602179055505f8054906101000a900473ffffffffffffffffffffffffffffffffffffffff1673ffffffffffffffffffffffffffffffffffffffff16600282815481106111ba576111b9612461565b5b905f5260205f20906003020160020160019054906101000a900473ffffffffffffffffffffffffffffffffffffffff1673ffffffffffffffffffffffffffffffffffffffff160361123b576002818154811061121957611218612461565b5b905f5260205f20906003020160010154836112349190612625565b925061126d565b6002818154811061124f5761124e612461565b5b905f5260205f209060030201600101548261126a9190612625565b91505b5b808061127990612658565b91505061109f565b5060015f9054906101000a900473ffffffffffffffffffffffffffffffffffffffff1673ffffffffffffffffffffffffffffffffffffffff165f8054906101000a900473ffffffffffffffffffffffffffffffffffffffff1673ffffffffffffffffffffffffffffffffffffffff167fd3fe828503e2482f1db99eb8630720cbc4a509c71046320c3df868124ca2409184846040516113219291906126fc565b60405180910390a350505050565b5f611338611025565b90505f6064603c8361134a9190612723565b61135491906126cc565b90505f8183611363919061238a565b90505f805f5b60028054905081101561154b57848310801561138457508382105b1561153857818311156113b85760015f9054906101000a900473ffffffffffffffffffffffffffffffffffffffff166113d9565b5f8054906101000a900473ffffffffffffffffffffffffffffffffffffffff165b600282815481106113ed576113ec612461565b5b905f5260205f20906003020160020160016101000a81548173ffffffffffffffffffffffffffffffffffffffff021916908373ffffffffffffffffffffffffffffffffffffffff1602179055505f8054906101000a900473ffffffffffffffffffffffffffffffffffffffff1673ffffffffffffffffffffffffffffffffffffffff166002828154811061148457611483612461565b5b905f5260205f20906003020160020160019054906101000a900473ffffffffffffffffffffffffffffffffffffffff1673ffffffffffffffffffffffffffffffffffffffff160361150557600281815481106114e3576114e2612461565b5b905f5260205f20906003020160010154836114fe9190612625565b9250611537565b6002818154811061151957611518612461565b5b905f5260205f20906003020160010154826115349190612625565b91505b5b808061154390612658565b915050611369565b5060015f9054906101000a900473ffffffffffffffffffffffffffffffffffffffff1673ffffffffffffffffffffffffffffffffffffffff165f8054906101000a900473ffffffffffffffffffffffffffffffffffffffff1673ffffffffffffffffffffffffffffffffffffffff167fd3fe828503e2482f1db99eb8630720cbc4a509c71046320c3df868124ca2409184846040516115eb9291906126fc565b60405180910390a35050505050565b5f805f5b6002805490508110156117b3575f8054906101000a900473ffffffffffffffffffffffffffffffffffffffff1673ffffffffffffffffffffffffffffffffffffffff166002828154811061165557611654612461565b5b905f5260205f20906003020160020160019054906101000a900473ffffffffffffffffffffffffffffffffffffffff1673ffffffffffffffffffffffffffffffffffffffff16036116d657600281815481106116b4576116b3612461565b5b905f5260205f20906003020160010154836116cf9190612625565b92506117a0565b60015f9054906101000a900473ffffffffffffffffffffffffffffffffffffffff1673ffffffffffffffffffffffffffffffffffffffff166002828154811061172257611721612461565b5b905f5260205f20906003020160020160019054906101000a900473ffffffffffffffffffffffffffffffffffffffff1673ffffffffffffffffffffffffffffffffffffffff160361179f576002818154811061178157611780612461565b5b905f5260205f209060030201600101548261179c9190612625565b91505b5b80806117ab90612658565b9150506115fe565b5060015f9054906101000a900473ffffffffffffffffffffffffffffffffffffffff1673ffffffffffffffffffffffffffffffffffffffff165f8054906101000a900473ffffffffffffffffffffffffffffffffffffffff1673ffffffffffffffffffffffffffffffffffffffff167fd3fe828503e2482f1db99eb8630720cbc4a509c71046320c3df868124ca2409184846040516118539291906126fc565b60405180910390a35050565b5f819050919050565b6118718161185f565b82525050565b5f60208201905061188a5f830184611868565b92915050565b5f604051905090565b5f80fd5b5f80fd5b5f73ffffffffffffffffffffffffffffffffffffffff82169050919050565b5f6118ca826118a1565b9050919050565b6118da816118c0565b81146118e4575f80fd5b50565b5f813590506118f5816118d1565b92915050565b5f602082840312156119105761190f611899565b5b5f61191d848285016118e7565b91505092915050565b5f81519050919050565b5f82825260208201905092915050565b5f819050602082019050919050565b6119588161185f565b82525050565b5f611969838361194f565b60208301905092915050565b5f602082019050919050565b5f61198b82611926565b6119958185611930565b93506119a083611940565b805f5b838110156119d05781516119b7888261195e565b97506119c283611975565b9250506001810190506119a3565b5085935050505092915050565b5f6020820190508181035f8301526119f58184611981565b905092915050565b611a068161185f565b8114611a10575f80fd5b50565b5f81359050611a21816119fd565b92915050565b5f8060408385031215611a3d57611a3c611899565b5b5f611a4a858286016118e7565b9250506020611a5b85828601611a13565b9150509250929050565b5f80fd5b5f80fd5b5f601f19601f8301169050919050565b7f4e487b71000000000000000000000000000000000000000000000000000000005f52604160045260245ffd5b611ab382611a6d565b810181811067ffffffffffffffff82111715611ad257611ad1611a7d565b5b80604052505050565b5f611ae4611890565b9050611af08282611aaa565b919050565b5f67ffffffffffffffff821115611b0f57611b0e611a7d565b5b611b1882611a6d565b9050602081019050919050565b828183375f83830152505050565b5f611b45611b4084611af5565b611adb565b905082815260208101848484011115611b6157611b60611a69565b5b611b6c848285611b25565b509392505050565b5f82601f830112611b8857611b87611a65565b5b8135611b98848260208601611b33565b91505092915050565b5f60208284031215611bb657611bb5611899565b5b5f82013567ffffffffffffffff811115611bd357611bd261189d565b5b611bdf84828501611b74565b91505092915050565b611bf1816118c0565b82525050565b5f602082019050611c0a5f830184611be8565b92915050565b5f8115159050919050565b611c2481611c10565b8114611c2e575f80fd5b50565b5f81359050611c3f81611c1b565b92915050565b5f805f8060808587031215611c5d57611c5c611899565b5b5f85013567ffffffffffffffff811115611c7a57611c7961189d565b5b611c8687828801611b74565b9450506020611c9787828801611a13565b9350506040611ca887828801611c31565b9250506060611cb9878288016118e7565b91505092959194509250565b5f60208284031215611cda57611cd9611899565b5b5f611ce784828501611a13565b91505092915050565b5f81519050919050565b5f82825260208201905092915050565b5f5b83811015611d27578082015181840152602081019050611d0c565b5f8484015250505050565b5f611d3c82611cf0565b611d468185611cfa565b9350611d56818560208601611d0a565b611d5f81611a6d565b840191505092915050565b611d7381611c10565b82525050565b5f6080820190508181035f830152611d918187611d32565b9050611da06020830186611868565b611dad6040830185611d6a565b611dba6060830184611be8565b95945050505050565b5f602082019050611dd65f830184611d6a565b92915050565b5f8060408385031215611df257611df1611899565b5b5f611dff85828601611a13565b9250506020611e10858286016118e7565b9150509250929050565b7f4e6f7420617574686f72697a65640000000000000000000000000000000000005f82015250565b5f611e4e600e83611cfa565b9150611e5982611e1a565b602082019050919050565b5f6020820190508181035f830152611e7b81611e42565b9050919050565b7f4d75737420696e697469617465206469766f726365206265666f7265206173735f8201527f657420646973747269627574696f6e0000000000000000000000000000000000602082015250565b5f611edc602f83611cfa565b9150611ee782611e82565b604082019050919050565b5f6020820190508181035f830152611f0981611ed0565b9050919050565b7f546f74616c2061737365742076616c7565206d757374206265206772656174655f8201527f72207468616e207a65726f000000000000000000000000000000000000000000602082015250565b5f611f6a602b83611cfa565b9150611f7582611f10565b604082019050919050565b5f6020820190508181035f830152611f9781611f5e565b9050919050565b7f496e76616c696420646973747269627574696f6e206d6574686f6400000000005f82015250565b5f611fd2601b83611cfa565b9150611fdd82611f9e565b602082019050919050565b5f6020820190508181035f830152611fff81611fc6565b9050919050565b7f43616e6e6f742061646420617373657473206166746572206469766f726365205f8201527f696e6974696174696f6e00000000000000000000000000000000000000000000602082015250565b5f612060602a83611cfa565b915061206b82612006565b604082019050919050565b5f6020820190508181035f83015261208d81612054565b9050919050565b7f4e487b71000000000000000000000000000000000000000000000000000000005f52602260045260245ffd5b5f60028204905060018216806120d857607f821691505b6020821081036120eb576120ea612094565b5b50919050565b5f819050815f5260205f209050919050565b5f6020601f8301049050919050565b5f82821b905092915050565b5f6008830261214d7fffffffffffffffffffffffffffffffffffffffffffffffffffffffffffffffff82612112565b6121578683612112565b95508019841693508086168417925050509392505050565b5f819050919050565b5f61219261218d6121888461185f565b61216f565b61185f565b9050919050565b5f819050919050565b6121ab83612178565b6121bf6121b782612199565b84845461211e565b825550505050565b5f90565b6121d36121c7565b6121de8184846121a2565b505050565b5b81811015612201576121f65f826121cb565b6001810190506121e4565b5050565b601f82111561224657612217816120f1565b61222084612103565b8101602085101561222f578190505b61224361223b85612103565b8301826121e3565b50505b505050565b5f82821c905092915050565b5f6122665f198460080261224b565b1980831691505092915050565b5f61227e8383612257565b9150826002028217905092915050565b61229782611cf0565b67ffffffffffffffff8111156122b0576122af611a7d565b5b6122ba82546120c1565b6122c5828285612205565b5f60209050601f8311600181146122f6575f84156122e4578287015190505b6122ee8582612273565b865550612355565b601f198416612304866120f1565b5f5b8281101561232b57848901518255600182019150602085019450602081019050612306565b868310156123485784890151612344601f891682612257565b8355505b6001600288020188555050505b505050505050565b7f4e487b71000000000000000000000000000000000000000000000000000000005f52601160045260245ffd5b5f6123948261185f565b915061239f8361185f565b92508282039050818111156123b7576123b661235d565b5b92915050565b5f6060820190508181035f8301526123d58186611d32565b90506123e46020830185611868565b6123f16040830184611d6a565b949350505050565b7f496e76616c696420617373657420696e646578000000000000000000000000005f82015250565b5f61242d601383611cfa565b9150612438826123f9565b602082019050919050565b5f6020820190508181035f83015261245a81612421565b9050919050565b7f4e487b71000000000000000000000000000000000000000000000000000000005f52603260045260245ffd5b7f4469766f72636520616c726561647920696e69746961746564206f72206e6f745f8201527f206d617272696564000000000000000000000000000000000000000000000000602082015250565b5f6124e8602883611cfa565b91506124f38261248e565b604082019050919050565b5f6020820190508181035f830152612515816124dc565b9050919050565b7f4e6f7420746865206173736574206f776e6572000000000000000000000000005f82015250565b5f612550601383611cfa565b915061255b8261251c565b602082019050919050565b5f6020820190508181035f83015261257d81612544565b9050919050565b5f8154612590816120c1565b61259a8186611cfa565b9450600182165f81146125b457600181146125ca576125fc565b60ff1983168652811515602002860193506125fc565b6125d3856120f1565b5f5b838110156125f4578154818901526001820191506020810190506125d5565b808801955050505b50505092915050565b5f6020820190508181035f83015261261d8184612584565b905092915050565b5f61262f8261185f565b915061263a8361185f565b92508282019050808211156126525761265161235d565b5b92915050565b5f6126628261185f565b91507fffffffffffffffffffffffffffffffffffffffffffffffffffffffffffffffff82036126945761269361235d565b5b600182019050919050565b7f4e487b71000000000000000000000000000000000000000000000000000000005f52601260045260245ffd5b5f6126d68261185f565b91506126e18361185f565b9250826126f1576126f061269f565b5b828204905092915050565b5f60408201905061270f5f830185611868565b61271c6020830184611868565b9392505050565b5f61272d8261185f565b91506127388361185f565b92508282026127468161185f565b9150828204841483151761275d5761275c61235d565b5b509291505056fea26469706673582212201fef08af942cd21d46c9a4f446fc96ad85730146c33161815951b4c50fc79ed264736f6c63430008150033",
  "immutableReferences": {},
  "source": "pragma solidity ^0.8.21;\n\ncontract MarriageContract {\n    address public spouse1;\n    address public spouse2;\n    bool public isMarried;\n\n    struct Asset {\n        string name;\n        uint256 value;\n        bool isTokenized;\n        address owner;\n    }\n     \n    Asset[] public assets;\n    mapping(address => uint256[]) public ownerAssets; // Mapping to track assets by owner\n    \n    event Marriage(address indexed spouse1, address indexed spouse2);\n    event DivorceInitiated(address indexed spouse);\n    event Divorce(address indexed spouse1, address indexed spouse2, uint256 spouse1Share, uint256 spouse2Share);\n    event AssetAdded(string name, uint256 value, bool isTokenized, address indexed owner);\n    event AssetTransferred(string name, address indexed newOwner);\n\n    modifier onlySpouses() {\n        require(msg.sender == spouse1 || msg.sender == spouse2, \"Not authorized\");\n        _;\n    }\n\n    constructor(address _spouse1, address _spouse2) {\n        spouse1 = _spouse1;\n        spouse2 = _spouse2;\n        isMarried = true;\n        emit Marriage(spouse1, spouse2);\n    }\n\n    function addAsset(string memory name, uint256 value, bool isTokenized, address owner) public onlySpouses {\n        require(isMarried, \"Cannot add assets after divorce initiation\");\n        Asset memory newAsset = Asset(name, value, isTokenized, owner);\n        assets.push(newAsset);\n        ownerAssets[owner].push(assets.length - 1); // Store the index of the asset in the owner's list\n        emit AssetAdded(name, value, isTokenized, owner);\n    }\n\n    function transferAsset(uint256 assetIndex, address newOwner) public onlySpouses {\n        require(assetIndex < assets.length, \"Invalid asset index\");\n        Asset storage asset = assets[assetIndex];\n        require(asset.owner == msg.sender, \"Not the asset owner\");\n        asset.owner = newOwner;\n        ownerAssets[newOwner].push(assetIndex);\n        emit AssetTransferred(asset.name, newOwner);\n    }\n\n    function initiateDivorce() public onlySpouses {\n        require(isMarried, \"Divorce already initiated or not married\");\n        isMarried = false;\n        emit DivorceInitiated(msg.sender);\n    }\n\n    function distributeAssets(string memory method) public onlySpouses {\n        require(!isMarried, \"Must initiate divorce before asset distribution\");\n\n        uint256 totalValue = _getTotalAssetValue();\n        require(totalValue > 0, \"Total asset value must be greater than zero\");\n\n        if (keccak256(bytes(method)) == keccak256(bytes(\"equal\"))) {\n            _distributeEqually();\n        } else if (keccak256(bytes(method)) == keccak256(bytes(\"proportional\"))) {\n            _distributeProportionally();\n        } else if (keccak256(bytes(method)) == keccak256(bytes(\"ownership\"))) {\n            _distributeByOwnership();\n        } else {\n            revert(\"Invalid distribution method\");\n        }\n    }\n\n    function _distributeEqually() private {\n        uint256 totalValue = _getTotalAssetValue();\n        uint256 halfValue = totalValue / 2;\n\n        uint256 spouse1Share = 0;\n        uint256 spouse2Share = 0;\n\n        for (uint256 i = 0; i < assets.length; i++) {\n            if (spouse1Share < halfValue && spouse2Share < halfValue) {\n                assets[i].owner = (spouse1Share <= spouse2Share) ? spouse1 : spouse2;\n                if (assets[i].owner == spouse1) {\n                    spouse1Share += assets[i].value;\n                } else {\n                    spouse2Share += assets[i].value;\n                }\n            }\n        }\n\n        emit Divorce(spouse1, spouse2, spouse1Share, spouse2Share);\n    }\n\n    function _distributeProportionally() private {\n        uint256 totalValue = _getTotalAssetValue();\n        uint256 spouse1Share = (totalValue * 60) / 100;  // Example: 60% to spouse1\n        uint256 spouse2Share = totalValue - spouse1Share;  // 40% to spouse2\n\n        uint256 currentSpouse1Share = 0;\n        uint256 currentSpouse2Share = 0;\n\n        for (uint256 i = 0; i < assets.length; i++) {\n            if (currentSpouse1Share < spouse1Share && currentSpouse2Share < spouse2Share) {\n                assets[i].owner = (currentSpouse1Share <= currentSpouse2Share) ? spouse1 : spouse2;\n                if (assets[i].owner == spouse1) {\n                    currentSpouse1Share += assets[i].value;\n                } else {\n                    currentSpouse2Share += assets[i].value;\n                }\n            }\n        }\n\n        emit Divorce(spouse1, spouse2, currentSpouse1Share, currentSpouse2Share);\n    }\n\n    function _distributeByOwnership() private {\n        uint256 spouse1Share = 0;\n        uint256 spouse2Share = 0;\n\n        for (uint256 i = 0; i < assets.length; i++) {\n            if (assets[i].owner == spouse1) {\n                spouse1Share += assets[i].value;\n            } else if (assets[i].owner == spouse2) {\n                spouse2Share += assets[i].value;\n            }\n        }\n\n        emit Divorce(spouse1, spouse2, spouse1Share, spouse2Share);\n    }\n\n    function _getTotalAssetValue() private view returns (uint256 totalValue) {\n        for (uint256 i = 0; i < assets.length; i++) {\n            totalValue += assets[i].value;\n        }\n    }\n\n    function getAssetsByOwner(address owner) public view returns (uint256[] memory) {\n        return ownerAssets[owner];\n    }\n\n    function getAssetDetails(uint256 assetIndex) public view returns (string memory name, uint256 value, bool isTokenized, address owner) {\n        require(assetIndex < assets.length, \"Invalid asset index\");\n        Asset memory asset = assets[assetIndex];\n        return (asset.name, asset.value, asset.isTokenized, asset.owner);\n    }\n\n    function getAssetsCount() public view returns (uint256) {\n        return assets.length;\n    }\n}\n",
  "sourcePath": "C:\\Users\\sarth\\Projects\\smart-marriage-contract\\backend\\contracts\\marriage.sol",
  "compiler": {
    "name": "solc",
    "version": "0.8.21+commit.d9974bed.Emscripten.clang"
  },
  "schemaVersion": "3.4.16",
  "updatedAt": "2024-11-11T15:43:55.142Z",
  "networkType": "ethereum",
  "devdoc": {
    "kind": "dev",
    "methods": {},
    "version": 1
  },
  "userdoc": {
    "kind": "user",
    "methods": {},
    "version": 1
  }
}