{
  "contractName": "MarriageContract",
  "abi": [
    {
      "inputs": [
        {
          "internalType": "address",
          "name": "_spouse1",
          "type": "address"
        },
        {
          "internalType": "address",
          "name": "_spouse2",
          "type": "address"
        }
      ],
      "stateMutability": "nonpayable",
      "type": "constructor"
    },
    {
      "anonymous": false,
      "inputs": [
        {
          "indexed": false,
          "internalType": "string",
          "name": "name",
          "type": "string"
        },
        {
          "indexed": false,
          "internalType": "uint256",
          "name": "value",
          "type": "uint256"
        },
        {
          "indexed": false,
          "internalType": "bool",
          "name": "isTokenized",
          "type": "bool"
        },
        {
          "indexed": true,
          "internalType": "address",
          "name": "owner",
          "type": "address"
        }
      ],
      "name": "AssetAdded",
      "type": "event"
    },
    {
      "anonymous": false,
      "inputs": [
        {
          "indexed": false,
          "internalType": "string",
          "name": "name",
          "type": "string"
        },
        {
          "indexed": true,
          "internalType": "address",
          "name": "newOwner",
          "type": "address"
        }
      ],
      "name": "AssetTransferred",
      "type": "event"
    },
    {
      "anonymous": false,
      "inputs": [
        {
          "indexed": true,
          "internalType": "address",
          "name": "spouse1",
          "type": "address"
        },
        {
          "indexed": true,
          "internalType": "address",
          "name": "spouse2",
          "type": "address"
        },
        {
          "indexed": false,
          "internalType": "uint256",
          "name": "spouse1Share",
          "type": "uint256"
        },
        {
          "indexed": false,
          "internalType": "uint256",
          "name": "spouse2Share",
          "type": "uint256"
        }
      ],
      "name": "Divorce",
      "type": "event"
    },
    {
      "anonymous": false,
      "inputs": [
        {
          "indexed": true,
          "internalType": "address",
          "name": "spouse",
          "type": "address"
        }
      ],
      "name": "DivorceInitiated",
      "type": "event"
    },
    {
      "anonymous": false,
      "inputs": [
        {
          "indexed": true,
          "internalType": "address",
          "name": "spouse1",
          "type": "address"
        },
        {
          "indexed": true,
          "internalType": "address",
          "name": "spouse2",
          "type": "address"
        }
      ],
      "name": "Marriage",
      "type": "event"
    },
    {
      "inputs": [
        {
          "internalType": "uint256",
          "name": "",
          "type": "uint256"
        }
      ],
      "name": "assets",
      "outputs": [
        {
          "internalType": "string",
          "name": "name",
          "type": "string"
        },
        {
          "internalType": "uint256",
          "name": "value",
          "type": "uint256"
        },
        {
          "internalType": "bool",
          "name": "isTokenized",
          "type": "bool"
        },
        {
          "internalType": "address",
          "name": "owner",
          "type": "address"
        }
      ],
      "stateMutability": "view",
      "type": "function",
      "constant": true
    },
    {
      "inputs": [],
      "name": "isMarried",
      "outputs": [
        {
          "internalType": "bool",
          "name": "",
          "type": "bool"
        }
      ],
      "stateMutability": "view",
      "type": "function",
      "constant": true
    },
    {
      "inputs": [
        {
          "internalType": "address",
          "name": "",
          "type": "address"
        },
        {
          "internalType": "uint256",
          "name": "",
          "type": "uint256"
        }
      ],
      "name": "ownerAssets",
      "outputs": [
        {
          "internalType": "uint256",
          "name": "",
          "type": "uint256"
        }
      ],
      "stateMutability": "view",
      "type": "function",
      "constant": true
    },
    {
      "inputs": [],
      "name": "spouse1",
      "outputs": [
        {
          "internalType": "address",
          "name": "",
          "type": "address"
        }
      ],
      "stateMutability": "view",
      "type": "function",
      "constant": true
    },
    {
      "inputs": [],
      "name": "spouse2",
      "outputs": [
        {
          "internalType": "address",
          "name": "",
          "type": "address"
        }
      ],
      "stateMutability": "view",
      "type": "function",
      "constant": true
    },
    {
      "inputs": [
        {
          "internalType": "string",
          "name": "name",
          "type": "string"
        },
        {
          "internalType": "uint256",
          "name": "value",
          "type": "uint256"
        },
        {
          "internalType": "bool",
          "name": "isTokenized",
          "type": "bool"
        },
        {
          "internalType": "address",
          "name": "owner",
          "type": "address"
        }
      ],
      "name": "addAsset",
      "outputs": [
        {
          "internalType": "uint256",
          "name": "",
          "type": "uint256"
        }
      ],
      "stateMutability": "nonpayable",
      "type": "function"
    },
    {
      "inputs": [],
      "name": "listAssets",
      "outputs": [
        {
          "internalType": "string[]",
          "name": "assetNames",
          "type": "string[]"
        },
        {
          "internalType": "uint256[]",
          "name": "assetValues",
          "type": "uint256[]"
        }
      ],
      "stateMutability": "view",
      "type": "function",
      "constant": true
    },
    {
      "inputs": [
        {
          "internalType": "string",
          "name": "assetName",
          "type": "string"
        },
        {
          "internalType": "address",
          "name": "newOwner",
          "type": "address"
        }
      ],
      "name": "transferAssetByName",
      "outputs": [],
      "stateMutability": "nonpayable",
      "type": "function"
    },
    {
      "inputs": [
        {
          "internalType": "uint256",
          "name": "assetIndex",
          "type": "uint256"
        },
        {
          "internalType": "address",
          "name": "newOwner",
          "type": "address"
        }
      ],
      "name": "transferAsset",
      "outputs": [],
      "stateMutability": "nonpayable",
      "type": "function"
    },
    {
      "inputs": [],
      "name": "initiateDivorce",
      "outputs": [],
      "stateMutability": "nonpayable",
      "type": "function"
    },
    {
      "inputs": [
        {
          "internalType": "string",
          "name": "method",
          "type": "string"
        }
      ],
      "name": "distributeAssets",
      "outputs": [],
      "stateMutability": "nonpayable",
      "type": "function"
    },
    {
      "inputs": [
        {
          "internalType": "address",
          "name": "owner",
          "type": "address"
        }
      ],
      "name": "getAssetsByOwner",
      "outputs": [
        {
          "internalType": "uint256[]",
          "name": "",
          "type": "uint256[]"
        }
      ],
      "stateMutability": "view",
      "type": "function",
      "constant": true
    },
    {
      "inputs": [
        {
          "internalType": "uint256",
          "name": "assetIndex",
          "type": "uint256"
        }
      ],
      "name": "getAssetDetails",
      "outputs": [
        {
          "internalType": "string",
          "name": "name",
          "type": "string"
        },
        {
          "internalType": "uint256",
          "name": "value",
          "type": "uint256"
        },
        {
          "internalType": "bool",
          "name": "isTokenized",
          "type": "bool"
        },
        {
          "internalType": "address",
          "name": "owner",
          "type": "address"
        }
      ],
      "stateMutability": "view",
      "type": "function",
      "constant": true
    },
    {
      "inputs": [],
      "name": "getAssetsCount",
      "outputs": [
        {
          "internalType": "uint256",
          "name": "",
          "type": "uint256"
        }
      ],
      "stateMutability": "view",
      "type": "function",
      "constant": true
    }
  ],
  "bytecode": "0x608060405234801562000010575f80fd5b50604051620034db380380620034db8339818101604052810190620000369190620001d6565b815f806101000a81548173ffffffffffffffffffffffffffffffffffffffff021916908373ffffffffffffffffffffffffffffffffffffffff1602179055508060015f6101000a81548173ffffffffffffffffffffffffffffffffffffffff021916908373ffffffffffffffffffffffffffffffffffffffff16021790555060018060146101000a81548160ff02191690831515021790555060015f9054906101000a900473ffffffffffffffffffffffffffffffffffffffff1673ffffffffffffffffffffffffffffffffffffffff165f8054906101000a900473ffffffffffffffffffffffffffffffffffffffff1673ffffffffffffffffffffffffffffffffffffffff167f1f06687311f13f3dbfbf7d72190a1d600769ed13ca058bce01da65315016a2b460405160405180910390a350506200021b565b5f80fd5b5f73ffffffffffffffffffffffffffffffffffffffff82169050919050565b5f620001a08262000175565b9050919050565b620001b28162000194565b8114620001bd575f80fd5b50565b5f81519050620001d081620001a7565b92915050565b5f8060408385031215620001ef57620001ee62000171565b5b5f620001fe85828601620001c0565b92505060206200021185828601620001c0565b9150509250929050565b6132b280620002295f395ff3fe608060405234801561000f575f80fd5b50600436106100e8575f3560e01c8063a1f24b3d1161008a578063dd36d6a511610064578063dd36d6a514610274578063eadeb9a31461027e578063fa62ee8d1461029d578063fb6a90f8146102b9576100e8565b8063a1f24b3d146101f0578063a702314d14610223578063cf35bdd014610241576100e8565b80634d4cb985116100c65780634d4cb9851461016a57806353605f481461018657806383832844146101a45780639043a508146101c0576100e8565b80630aac5dfd146100ec578063276f09341461010a578063455bd9511461013a575b5f80fd5b6100f46102d7565b6040516101019190612090565b60405180910390f35b610124600480360381019061011f9190612114565b6102e3565b60405161013191906121f6565b60405180910390f35b610154600480360381019061014f9190612240565b610376565b6040516101619190612090565b60405180910390f35b610184600480360381019061017f91906123ba565b6103a1565b005b61018e610668565b60405161019b9190612410565b60405180910390f35b6101be60048036038101906101b99190612429565b61068d565b005b6101da60048036038101906101d591906124b8565b610a57565b6040516101e79190612090565b60405180910390f35b61020a60048036038101906102059190612538565b610d58565b60405161021a94939291906125ec565b60405180910390f35b61022b610efe565b6040516102389190612636565b60405180910390f35b61025b60048036038101906102569190612538565b610f11565b60405161026b94939291906125ec565b60405180910390f35b61027c610ffe565b005b610286611190565b604051610294929190612752565b60405180910390f35b6102b760048036038101906102b29190612787565b611417565b005b6102c161171e565b6040516102ce9190612410565b60405180910390f35b5f600280549050905090565b606060035f8373ffffffffffffffffffffffffffffffffffffffff1673ffffffffffffffffffffffffffffffffffffffff1681526020019081526020015f2080548060200260200160405190810160405280929190818152602001828054801561036a57602002820191905f5260205f20905b815481526020019060010190808311610356575b50505050509050919050565b6003602052815f5260405f20818154811061038f575f80fd5b905f5260205f20015f91509150505481565b5f8054906101000a900473ffffffffffffffffffffffffffffffffffffffff1673ffffffffffffffffffffffffffffffffffffffff163373ffffffffffffffffffffffffffffffffffffffff161480610446575060015f9054906101000a900473ffffffffffffffffffffffffffffffffffffffff1673ffffffffffffffffffffffffffffffffffffffff163373ffffffffffffffffffffffffffffffffffffffff16145b610485576040517f08c379a000000000000000000000000000000000000000000000000000000000815260040161047c9061280f565b60405180910390fd5b600160149054906101000a900460ff16156104d5576040517f08c379a00000000000000000000000000000000000000000000000000000000081526004016104cc9061289d565b60405180910390fd5b5f6104de611741565b90505f8111610522576040517f08c379a00000000000000000000000000000000000000000000000000000000081526004016105199061292b565b60405180910390fd5b6040518060400160405280600581526020017f657175616c000000000000000000000000000000000000000000000000000000815250805190602001208280519060200120036105795761057461179c565b610664565b6040518060400160405280600c81526020017f70726f706f7274696f6e616c0000000000000000000000000000000000000000815250805190602001208280519060200120036105d0576105cb611a4b565b610663565b6040518060400160405280600981526020017f6f776e65727368697000000000000000000000000000000000000000000000008152508051906020012082805190602001200361062757610622611d16565b610662565b6040517f08c379a000000000000000000000000000000000000000000000000000000000815260040161065990612993565b60405180910390fd5b5b5b5050565b60015f9054906101000a900473ffffffffffffffffffffffffffffffffffffffff1681565b5f8054906101000a900473ffffffffffffffffffffffffffffffffffffffff1673ffffffffffffffffffffffffffffffffffffffff163373ffffffffffffffffffffffffffffffffffffffff161480610732575060015f9054906101000a900473ffffffffffffffffffffffffffffffffffffffff1673ffffffffffffffffffffffffffffffffffffffff163373ffffffffffffffffffffffffffffffffffffffff16145b610771576040517f08c379a00000000000000000000000000000000000000000000000000000000081526004016107689061280f565b60405180910390fd5b5f805b600280549050811015610a115783805190602001206002828154811061079d5761079c6129b1565b5b905f5260205f2090600302015f016040516107b89190612ad7565b6040518091039020036109fe573373ffffffffffffffffffffffffffffffffffffffff16600282815481106107f0576107ef6129b1565b5b905f5260205f20906003020160020160019054906101000a900473ffffffffffffffffffffffffffffffffffffffff1673ffffffffffffffffffffffffffffffffffffffff1614610876576040517f08c379a000000000000000000000000000000000000000000000000000000000815260040161086d90612b37565b60405180910390fd5b6108c36002828154811061088d5761088c6129b1565b5b905f5260205f20906003020160020160019054906101000a900473ffffffffffffffffffffffffffffffffffffffff1682611f7b565b82600282815481106108d8576108d76129b1565b5b905f5260205f20906003020160020160016101000a81548173ffffffffffffffffffffffffffffffffffffffff021916908373ffffffffffffffffffffffffffffffffffffffff16021790555060035f8473ffffffffffffffffffffffffffffffffffffffff1673ffffffffffffffffffffffffffffffffffffffff1681526020019081526020015f2081908060018154018082558091505060019003905f5260205f20015f90919091909150558273ffffffffffffffffffffffffffffffffffffffff167feb5476790d1d39c8b19dd28e329f20439f6b16bc912c68590eab27cbd4466b2c600283815481106109d2576109d16129b1565b5b905f5260205f2090600302015f016040516109ed9190612be8565b60405180910390a260019150610a11565b8080610a0990612c35565b915050610774565b5080610a52576040517f08c379a0000000000000000000000000000000000000000000000000000000008152600401610a4990612cec565b60405180910390fd5b505050565b5f805f9054906101000a900473ffffffffffffffffffffffffffffffffffffffff1673ffffffffffffffffffffffffffffffffffffffff163373ffffffffffffffffffffffffffffffffffffffff161480610afe575060015f9054906101000a900473ffffffffffffffffffffffffffffffffffffffff1673ffffffffffffffffffffffffffffffffffffffff163373ffffffffffffffffffffffffffffffffffffffff16145b610b3d576040517f08c379a0000000000000000000000000000000000000000000000000000000008152600401610b349061280f565b60405180910390fd5b600160149054906101000a900460ff16610b8c576040517f08c379a0000000000000000000000000000000000000000000000000000000008152600401610b8390612d7a565b60405180910390fd5b5f604051806080016040528087815260200186815260200185151581526020018473ffffffffffffffffffffffffffffffffffffffff168152509050600281908060018154018082558091505060019003905f5260205f2090600302015f909190919091505f820151815f019081610c049190612f23565b50602082015181600101556040820151816002015f6101000a81548160ff02191690831515021790555060608201518160020160016101000a81548173ffffffffffffffffffffffffffffffffffffffff021916908373ffffffffffffffffffffffffffffffffffffffff160217905550505060035f8473ffffffffffffffffffffffffffffffffffffffff1673ffffffffffffffffffffffffffffffffffffffff1681526020019081526020015f206001600280549050610cc69190612ff2565b908060018154018082558091505060019003905f5260205f20015f90919091909150558273ffffffffffffffffffffffffffffffffffffffff167fb69ee633e44efc83a2a42766fd6dc214c73784d0f7c51020cc6a59f20e19ba26878787604051610d3393929190613025565b60405180910390a26001600280549050610d4d9190612ff2565b915050949350505050565b60605f805f6002805490508510610da4576040517f08c379a0000000000000000000000000000000000000000000000000000000008152600401610d9b906130ab565b60405180910390fd5b5f60028681548110610db957610db86129b1565b5b905f5260205f2090600302016040518060800160405290815f82018054610ddf90612a0b565b80601f0160208091040260200160405190810160405280929190818152602001828054610e0b90612a0b565b8015610e565780601f10610e2d57610100808354040283529160200191610e56565b820191905f5260205f20905b815481529060010190602001808311610e3957829003601f168201915b5050505050815260200160018201548152602001600282015f9054906101000a900460ff161515151581526020016002820160019054906101000a900473ffffffffffffffffffffffffffffffffffffffff1673ffffffffffffffffffffffffffffffffffffffff1673ffffffffffffffffffffffffffffffffffffffff16815250509050805f01518160200151826040015183606001519450945094509450509193509193565b600160149054906101000a900460ff1681565b60028181548110610f20575f80fd5b905f5260205f2090600302015f91509050805f018054610f3f90612a0b565b80601f0160208091040260200160405190810160405280929190818152602001828054610f6b90612a0b565b8015610fb65780601f10610f8d57610100808354040283529160200191610fb6565b820191905f5260205f20905b815481529060010190602001808311610f9957829003601f168201915b505050505090806001015490806002015f9054906101000a900460ff16908060020160019054906101000a900473ffffffffffffffffffffffffffffffffffffffff16905084565b5f8054906101000a900473ffffffffffffffffffffffffffffffffffffffff1673ffffffffffffffffffffffffffffffffffffffff163373ffffffffffffffffffffffffffffffffffffffff1614806110a3575060015f9054906101000a900473ffffffffffffffffffffffffffffffffffffffff1673ffffffffffffffffffffffffffffffffffffffff163373ffffffffffffffffffffffffffffffffffffffff16145b6110e2576040517f08c379a00000000000000000000000000000000000000000000000000000000081526004016110d99061280f565b60405180910390fd5b600160149054906101000a900460ff16611131576040517f08c379a000000000000000000000000000000000000000000000000000000000815260040161112890613139565b60405180910390fd5b5f600160146101000a81548160ff0219169083151502179055503373ffffffffffffffffffffffffffffffffffffffff167fd7cd4e5586cc81696a25f9f8984878b2ba504039d968729d346d89826ce8887060405160405180910390a2565b6060805f60035f3373ffffffffffffffffffffffffffffffffffffffff1673ffffffffffffffffffffffffffffffffffffffff1681526020019081526020015f2080548060200260200160405190810160405280929190818152602001828054801561121957602002820191905f5260205f20905b815481526020019060010190808311611205575b505050505090505f815190505f8167ffffffffffffffff8111156112405761123f612296565b5b60405190808252806020026020018201604052801561127357816020015b606081526020019060019003908161125e5790505b5090505f8267ffffffffffffffff81111561129157611290612296565b5b6040519080825280602002602001820160405280156112bf5781602001602082028036833780820191505090505b5090505f5b83811015611408575f8582815181106112e0576112df6129b1565b5b60200260200101519050600281815481106112fe576112fd6129b1565b5b905f5260205f2090600302015f01805461131790612a0b565b80601f016020809104026020016040519081016040528092919081815260200182805461134390612a0b565b801561138e5780601f106113655761010080835404028352916020019161138e565b820191905f5260205f20905b81548152906001019060200180831161137157829003601f168201915b50505050508483815181106113a6576113a56129b1565b5b6020026020010181905250600281815481106113c5576113c46129b1565b5b905f5260205f209060030201600101548383815181106113e8576113e76129b1565b5b60200260200101818152505050808061140090612c35565b9150506112c4565b50818195509550505050509091565b5f8054906101000a900473ffffffffffffffffffffffffffffffffffffffff1673ffffffffffffffffffffffffffffffffffffffff163373ffffffffffffffffffffffffffffffffffffffff1614806114bc575060015f9054906101000a900473ffffffffffffffffffffffffffffffffffffffff1673ffffffffffffffffffffffffffffffffffffffff163373ffffffffffffffffffffffffffffffffffffffff16145b6114fb576040517f08c379a00000000000000000000000000000000000000000000000000000000081526004016114f29061280f565b60405180910390fd5b6002805490508210611542576040517f08c379a0000000000000000000000000000000000000000000000000000000008152600401611539906130ab565b60405180910390fd5b5f60028381548110611557576115566129b1565b5b905f5260205f20906003020190503373ffffffffffffffffffffffffffffffffffffffff168160020160019054906101000a900473ffffffffffffffffffffffffffffffffffffffff1673ffffffffffffffffffffffffffffffffffffffff16146115f7576040517f08c379a00000000000000000000000000000000000000000000000000000000081526004016115ee90612b37565b60405180910390fd5b6116258160020160019054906101000a900473ffffffffffffffffffffffffffffffffffffffff1684611f7b565b818160020160016101000a81548173ffffffffffffffffffffffffffffffffffffffff021916908373ffffffffffffffffffffffffffffffffffffffff16021790555060035f8373ffffffffffffffffffffffffffffffffffffffff1673ffffffffffffffffffffffffffffffffffffffff1681526020019081526020015f2083908060018154018082558091505060019003905f5260205f20015f90919091909150558173ffffffffffffffffffffffffffffffffffffffff167feb5476790d1d39c8b19dd28e329f20439f6b16bc912c68590eab27cbd4466b2c825f016040516117119190612be8565b60405180910390a2505050565b5f8054906101000a900473ffffffffffffffffffffffffffffffffffffffff1681565b5f805f90505b6002805490508110156117985760028181548110611768576117676129b1565b5b905f5260205f20906003020160010154826117839190613157565b9150808061179090612c35565b915050611747565b5090565b5f6117a5611741565b90505f6002826117b591906131b7565b90505f805f5b60028054905081101561199d5783831080156117d657508382105b1561198a578183111561180a5760015f9054906101000a900473ffffffffffffffffffffffffffffffffffffffff1661182b565b5f8054906101000a900473ffffffffffffffffffffffffffffffffffffffff165b6002828154811061183f5761183e6129b1565b5b905f5260205f20906003020160020160016101000a81548173ffffffffffffffffffffffffffffffffffffffff021916908373ffffffffffffffffffffffffffffffffffffffff1602179055505f8054906101000a900473ffffffffffffffffffffffffffffffffffffffff1673ffffffffffffffffffffffffffffffffffffffff16600282815481106118d6576118d56129b1565b5b905f5260205f20906003020160020160019054906101000a900473ffffffffffffffffffffffffffffffffffffffff1673ffffffffffffffffffffffffffffffffffffffff16036119575760028181548110611935576119346129b1565b5b905f5260205f20906003020160010154836119509190613157565b9250611989565b6002818154811061196b5761196a6129b1565b5b905f5260205f20906003020160010154826119869190613157565b91505b5b808061199590612c35565b9150506117bb565b5060015f9054906101000a900473ffffffffffffffffffffffffffffffffffffffff1673ffffffffffffffffffffffffffffffffffffffff165f8054906101000a900473ffffffffffffffffffffffffffffffffffffffff1673ffffffffffffffffffffffffffffffffffffffff167fd3fe828503e2482f1db99eb8630720cbc4a509c71046320c3df868124ca240918484604051611a3d9291906131e7565b60405180910390a350505050565b5f611a54611741565b90505f6064603c83611a66919061320e565b611a7091906131b7565b90505f8183611a7f9190612ff2565b90505f805f5b600280549050811015611c67578483108015611aa057508382105b15611c545781831115611ad45760015f9054906101000a900473ffffffffffffffffffffffffffffffffffffffff16611af5565b5f8054906101000a900473ffffffffffffffffffffffffffffffffffffffff165b60028281548110611b0957611b086129b1565b5b905f5260205f20906003020160020160016101000a81548173ffffffffffffffffffffffffffffffffffffffff021916908373ffffffffffffffffffffffffffffffffffffffff1602179055505f8054906101000a900473ffffffffffffffffffffffffffffffffffffffff1673ffffffffffffffffffffffffffffffffffffffff1660028281548110611ba057611b9f6129b1565b5b905f5260205f20906003020160020160019054906101000a900473ffffffffffffffffffffffffffffffffffffffff1673ffffffffffffffffffffffffffffffffffffffff1603611c215760028181548110611bff57611bfe6129b1565b5b905f5260205f2090600302016001015483611c1a9190613157565b9250611c53565b60028181548110611c3557611c346129b1565b5b905f5260205f2090600302016001015482611c509190613157565b91505b5b8080611c5f90612c35565b915050611a85565b5060015f9054906101000a900473ffffffffffffffffffffffffffffffffffffffff1673ffffffffffffffffffffffffffffffffffffffff165f8054906101000a900473ffffffffffffffffffffffffffffffffffffffff1673ffffffffffffffffffffffffffffffffffffffff167fd3fe828503e2482f1db99eb8630720cbc4a509c71046320c3df868124ca240918484604051611d079291906131e7565b60405180910390a35050505050565b5f805f5b600280549050811015611ecf575f8054906101000a900473ffffffffffffffffffffffffffffffffffffffff1673ffffffffffffffffffffffffffffffffffffffff1660028281548110611d7157611d706129b1565b5b905f5260205f20906003020160020160019054906101000a900473ffffffffffffffffffffffffffffffffffffffff1673ffffffffffffffffffffffffffffffffffffffff1603611df25760028181548110611dd057611dcf6129b1565b5b905f5260205f2090600302016001015483611deb9190613157565b9250611ebc565b60015f9054906101000a900473ffffffffffffffffffffffffffffffffffffffff1673ffffffffffffffffffffffffffffffffffffffff1660028281548110611e3e57611e3d6129b1565b5b905f5260205f20906003020160020160019054906101000a900473ffffffffffffffffffffffffffffffffffffffff1673ffffffffffffffffffffffffffffffffffffffff1603611ebb5760028181548110611e9d57611e9c6129b1565b5b905f5260205f2090600302016001015482611eb89190613157565b91505b5b8080611ec790612c35565b915050611d1a565b5060015f9054906101000a900473ffffffffffffffffffffffffffffffffffffffff1673ffffffffffffffffffffffffffffffffffffffff165f8054906101000a900473ffffffffffffffffffffffffffffffffffffffff1673ffffffffffffffffffffffffffffffffffffffff167fd3fe828503e2482f1db99eb8630720cbc4a509c71046320c3df868124ca240918484604051611f6f9291906131e7565b60405180910390a35050565b5f60035f8473ffffffffffffffffffffffffffffffffffffffff1673ffffffffffffffffffffffffffffffffffffffff1681526020019081526020015f2090505f5b81805490508110156120725782828281548110611fdd57611fdc6129b1565b5b905f5260205f2001540361205f578160018380549050611ffd9190612ff2565b8154811061200e5761200d6129b1565b5b905f5260205f20015482828154811061202a576120296129b1565b5b905f5260205f200181905550818054806120475761204661324f565b5b600190038181905f5260205f20015f90559055612072565b808061206a90612c35565b915050611fbd565b50505050565b5f819050919050565b61208a81612078565b82525050565b5f6020820190506120a35f830184612081565b92915050565b5f604051905090565b5f80fd5b5f80fd5b5f73ffffffffffffffffffffffffffffffffffffffff82169050919050565b5f6120e3826120ba565b9050919050565b6120f3816120d9565b81146120fd575f80fd5b50565b5f8135905061210e816120ea565b92915050565b5f60208284031215612129576121286120b2565b5b5f61213684828501612100565b91505092915050565b5f81519050919050565b5f82825260208201905092915050565b5f819050602082019050919050565b61217181612078565b82525050565b5f6121828383612168565b60208301905092915050565b5f602082019050919050565b5f6121a48261213f565b6121ae8185612149565b93506121b983612159565b805f5b838110156121e95781516121d08882612177565b97506121db8361218e565b9250506001810190506121bc565b5085935050505092915050565b5f6020820190508181035f83015261220e818461219a565b905092915050565b61221f81612078565b8114612229575f80fd5b50565b5f8135905061223a81612216565b92915050565b5f8060408385031215612256576122556120b2565b5b5f61226385828601612100565b92505060206122748582860161222c565b9150509250929050565b5f80fd5b5f80fd5b5f601f19601f8301169050919050565b7f4e487b71000000000000000000000000000000000000000000000000000000005f52604160045260245ffd5b6122cc82612286565b810181811067ffffffffffffffff821117156122eb576122ea612296565b5b80604052505050565b5f6122fd6120a9565b905061230982826122c3565b919050565b5f67ffffffffffffffff82111561232857612327612296565b5b61233182612286565b9050602081019050919050565b828183375f83830152505050565b5f61235e6123598461230e565b6122f4565b90508281526020810184848401111561237a57612379612282565b5b61238584828561233e565b509392505050565b5f82601f8301126123a1576123a061227e565b5b81356123b184826020860161234c565b91505092915050565b5f602082840312156123cf576123ce6120b2565b5b5f82013567ffffffffffffffff8111156123ec576123eb6120b6565b5b6123f88482850161238d565b91505092915050565b61240a816120d9565b82525050565b5f6020820190506124235f830184612401565b92915050565b5f806040838503121561243f5761243e6120b2565b5b5f83013567ffffffffffffffff81111561245c5761245b6120b6565b5b6124688582860161238d565b925050602061247985828601612100565b9150509250929050565b5f8115159050919050565b61249781612483565b81146124a1575f80fd5b50565b5f813590506124b28161248e565b92915050565b5f805f80608085870312156124d0576124cf6120b2565b5b5f85013567ffffffffffffffff8111156124ed576124ec6120b6565b5b6124f98782880161238d565b945050602061250a8782880161222c565b935050604061251b878288016124a4565b925050606061252c87828801612100565b91505092959194509250565b5f6020828403121561254d5761254c6120b2565b5b5f61255a8482850161222c565b91505092915050565b5f81519050919050565b5f82825260208201905092915050565b5f5b8381101561259a57808201518184015260208101905061257f565b5f8484015250505050565b5f6125af82612563565b6125b9818561256d565b93506125c981856020860161257d565b6125d281612286565b840191505092915050565b6125e681612483565b82525050565b5f6080820190508181035f83015261260481876125a5565b90506126136020830186612081565b61262060408301856125dd565b61262d6060830184612401565b95945050505050565b5f6020820190506126495f8301846125dd565b92915050565b5f81519050919050565b5f82825260208201905092915050565b5f819050602082019050919050565b5f82825260208201905092915050565b5f61269282612563565b61269c8185612678565b93506126ac81856020860161257d565b6126b581612286565b840191505092915050565b5f6126cb8383612688565b905092915050565b5f602082019050919050565b5f6126e98261264f565b6126f38185612659565b93508360208202850161270585612669565b805f5b85811015612740578484038952815161272185826126c0565b945061272c836126d3565b925060208a01995050600181019050612708565b50829750879550505050505092915050565b5f6040820190508181035f83015261276a81856126df565b9050818103602083015261277e818461219a565b90509392505050565b5f806040838503121561279d5761279c6120b2565b5b5f6127aa8582860161222c565b92505060206127bb85828601612100565b9150509250929050565b7f4e6f7420617574686f72697a65640000000000000000000000000000000000005f82015250565b5f6127f9600e8361256d565b9150612804826127c5565b602082019050919050565b5f6020820190508181035f830152612826816127ed565b9050919050565b7f4d75737420696e697469617465206469766f726365206265666f7265206173735f8201527f657420646973747269627574696f6e0000000000000000000000000000000000602082015250565b5f612887602f8361256d565b91506128928261282d565b604082019050919050565b5f6020820190508181035f8301526128b48161287b565b9050919050565b7f546f74616c2061737365742076616c7565206d757374206265206772656174655f8201527f72207468616e207a65726f000000000000000000000000000000000000000000602082015250565b5f612915602b8361256d565b9150612920826128bb565b604082019050919050565b5f6020820190508181035f83015261294281612909565b9050919050565b7f496e76616c696420646973747269627574696f6e206d6574686f6400000000005f82015250565b5f61297d601b8361256d565b915061298882612949565b602082019050919050565b5f6020820190508181035f8301526129aa81612971565b9050919050565b7f4e487b71000000000000000000000000000000000000000000000000000000005f52603260045260245ffd5b7f4e487b71000000000000000000000000000000000000000000000000000000005f52602260045260245ffd5b5f6002820490506001821680612a2257607f821691505b602082108103612a3557612a346129de565b5b50919050565b5f81905092915050565b5f819050815f5260205f209050919050565b5f8154612a6381612a0b565b612a6d8186612a3b565b9450600182165f8114612a875760018114612a9c57612ace565b60ff1983168652811515820286019350612ace565b612aa585612a45565b5f5b83811015612ac657815481890152600182019150602081019050612aa7565b838801955050505b50505092915050565b5f612ae28284612a57565b915081905092915050565b7f4e6f7420746865206173736574206f776e6572000000000000000000000000005f82015250565b5f612b2160138361256d565b9150612b2c82612aed565b602082019050919050565b5f6020820190508181035f830152612b4e81612b15565b9050919050565b5f819050815f5260205f209050919050565b5f8154612b7381612a0b565b612b7d818661256d565b9450600182165f8114612b975760018114612bad57612bdf565b60ff198316865281151560200286019350612bdf565b612bb685612b55565b5f5b83811015612bd757815481890152600182019150602081019050612bb8565b808801955050505b50505092915050565b5f6020820190508181035f830152612c008184612b67565b905092915050565b7f4e487b71000000000000000000000000000000000000000000000000000000005f52601160045260245ffd5b5f612c3f82612078565b91507fffffffffffffffffffffffffffffffffffffffffffffffffffffffffffffffff8203612c7157612c70612c08565b5b600182019050919050565b7f417373657420776974682074686520737065636966696564206e616d65206e6f5f8201527f7420666f756e6400000000000000000000000000000000000000000000000000602082015250565b5f612cd660278361256d565b9150612ce182612c7c565b604082019050919050565b5f6020820190508181035f830152612d0381612cca565b9050919050565b7f43616e6e6f742061646420617373657473206166746572206469766f726365205f8201527f696e6974696174696f6e00000000000000000000000000000000000000000000602082015250565b5f612d64602a8361256d565b9150612d6f82612d0a565b604082019050919050565b5f6020820190508181035f830152612d9181612d58565b9050919050565b5f6020601f8301049050919050565b5f82821b905092915050565b5f60088302612de27fffffffffffffffffffffffffffffffffffffffffffffffffffffffffffffffff82612da7565b612dec8683612da7565b95508019841693508086168417925050509392505050565b5f819050919050565b5f612e27612e22612e1d84612078565b612e04565b612078565b9050919050565b5f819050919050565b612e4083612e0d565b612e54612e4c82612e2e565b848454612db3565b825550505050565b5f90565b612e68612e5c565b612e73818484612e37565b505050565b5b81811015612e9657612e8b5f82612e60565b600181019050612e79565b5050565b601f821115612edb57612eac81612b55565b612eb584612d98565b81016020851015612ec4578190505b612ed8612ed085612d98565b830182612e78565b50505b505050565b5f82821c905092915050565b5f612efb5f1984600802612ee0565b1980831691505092915050565b5f612f138383612eec565b9150826002028217905092915050565b612f2c82612563565b67ffffffffffffffff811115612f4557612f44612296565b5b612f4f8254612a0b565b612f5a828285612e9a565b5f60209050601f831160018114612f8b575f8415612f79578287015190505b612f838582612f08565b865550612fea565b601f198416612f9986612b55565b5f5b82811015612fc057848901518255600182019150602085019450602081019050612f9b565b86831015612fdd5784890151612fd9601f891682612eec565b8355505b6001600288020188555050505b505050505050565b5f612ffc82612078565b915061300783612078565b925082820390508181111561301f5761301e612c08565b5b92915050565b5f6060820190508181035f83015261303d81866125a5565b905061304c6020830185612081565b61305960408301846125dd565b949350505050565b7f496e76616c696420617373657420696e646578000000000000000000000000005f82015250565b5f61309560138361256d565b91506130a082613061565b602082019050919050565b5f6020820190508181035f8301526130c281613089565b9050919050565b7f4469766f72636520616c726561647920696e69746961746564206f72206e6f745f8201527f206d617272696564000000000000000000000000000000000000000000000000602082015250565b5f61312360288361256d565b915061312e826130c9565b604082019050919050565b5f6020820190508181035f83015261315081613117565b9050919050565b5f61316182612078565b915061316c83612078565b925082820190508082111561318457613183612c08565b5b92915050565b7f4e487b71000000000000000000000000000000000000000000000000000000005f52601260045260245ffd5b5f6131c182612078565b91506131cc83612078565b9250826131dc576131db61318a565b5b828204905092915050565b5f6040820190506131fa5f830185612081565b6132076020830184612081565b9392505050565b5f61321882612078565b915061322383612078565b925082820261323181612078565b9150828204841483151761324857613247612c08565b5b5092915050565b7f4e487b71000000000000000000000000000000000000000000000000000000005f52603160045260245ffdfea2646970667358221220cc3a86f97ee53af4d01513f97a6ab4e0dd5cc880a84f2963edd5dac0189696c464736f6c63430008150033",
  "immutableReferences": {},
  "source": "pragma solidity ^0.8.21;\n\ncontract MarriageContract {\n    address public spouse1;\n    address public spouse2;\n    bool public isMarried;\n\n    struct Asset {\n        string name;\n        uint256 value;\n        bool isTokenized;\n        address owner;\n    }\n     \n    Asset[] public assets;\n    mapping(address => uint256[]) public ownerAssets; // Mapping to track assets by owner\n    \n    event Marriage(address indexed spouse1, address indexed spouse2);\n    event DivorceInitiated(address indexed spouse);\n    event Divorce(address indexed spouse1, address indexed spouse2, uint256 spouse1Share, uint256 spouse2Share);\n    event AssetAdded(string name, uint256 value, bool isTokenized, address indexed owner);\n    event AssetTransferred(string name, address indexed newOwner);\n\n    modifier onlySpouses() {\n        require(msg.sender == spouse1 || msg.sender == spouse2, \"Not authorized\");\n        _;\n    }\n\n    constructor(address _spouse1, address _spouse2) {\n        spouse1 = _spouse1;\n        spouse2 = _spouse2;\n        isMarried = true;\n        emit Marriage(spouse1, spouse2);\n    }\n\n    function addAsset(string memory name, uint256 value, bool isTokenized, address owner) public onlySpouses returns (uint256) {\n        require(isMarried, \"Cannot add assets after divorce initiation\");\n        Asset memory newAsset = Asset(name, value, isTokenized, owner);\n        assets.push(newAsset);\n        ownerAssets[owner].push(assets.length - 1); // Store the index of the asset in the owner's list\n        emit AssetAdded(name, value, isTokenized, owner);\n        return assets.length - 1; // Return the index of the newly added asset\n    }\n\n    function listAssets() public view returns (string[] memory assetNames, uint256[] memory assetValues) {\n        uint256[] memory ownedAssetIndexes = ownerAssets[msg.sender];\n        uint256 count = ownedAssetIndexes.length;\n    \n        string[] memory names = new string[](count);\n        uint256[] memory values = new uint256[](count);\n    \n        for (uint256 i = 0; i < count; i++) {\n            uint256 assetIndex = ownedAssetIndexes[i];\n            names[i] = assets[assetIndex].name;\n            values[i] = assets[assetIndex].value;\n        }\n    \n        return (names, values);\n    }\n\n    function transferAssetByName(string memory assetName, address newOwner) public onlySpouses {\n        bool assetFound = false;\n        for (uint256 i = 0; i < assets.length; i++) {\n            if (keccak256(bytes(assets[i].name)) == keccak256(bytes(assetName))) {\n                require(assets[i].owner == msg.sender, \"Not the asset owner\");\n\n                _removeAssetFromOwner(assets[i].owner, i);\n\n                assets[i].owner = newOwner;\n                ownerAssets[newOwner].push(i);\n                emit AssetTransferred(assets[i].name, newOwner);\n\n                assetFound = true;\n                break;\n            }\n        }\n        require(assetFound, \"Asset with the specified name not found\");\n    }\n    \n    function _removeAssetFromOwner(address owner, uint256 assetIndex) private {\n        uint256[] storage ownerAssetIndexes = ownerAssets[owner];\n        for (uint256 i = 0; i < ownerAssetIndexes.length; i++) {\n            if (ownerAssetIndexes[i] == assetIndex) {\n                ownerAssetIndexes[i] = ownerAssetIndexes[ownerAssetIndexes.length - 1];\n                ownerAssetIndexes.pop();\n                break;\n            }\n        }\n    }\n\n    function transferAsset(uint256 assetIndex, address newOwner) public onlySpouses {\n        require(assetIndex < assets.length, \"Invalid asset index\");\n        Asset storage asset = assets[assetIndex];\n        require(asset.owner == msg.sender, \"Not the asset owner\");\n\n        _removeAssetFromOwner(asset.owner, assetIndex);\n\n        asset.owner = newOwner;\n        ownerAssets[newOwner].push(assetIndex);\n    \n        emit AssetTransferred(asset.name, newOwner);\n    }\n\n    function initiateDivorce() public onlySpouses {\n        require(isMarried, \"Divorce already initiated or not married\");\n        isMarried = false;\n        emit DivorceInitiated(msg.sender);\n    }\n\n    function distributeAssets(string memory method) public onlySpouses {\n        require(!isMarried, \"Must initiate divorce before asset distribution\");\n\n        uint256 totalValue = _getTotalAssetValue();\n        require(totalValue > 0, \"Total asset value must be greater than zero\");\n\n        if (keccak256(bytes(method)) == keccak256(bytes(\"equal\"))) {\n            _distributeEqually();\n        } else if (keccak256(bytes(method)) == keccak256(bytes(\"proportional\"))) {\n            _distributeProportionally();\n        } else if (keccak256(bytes(method)) == keccak256(bytes(\"ownership\"))) {\n            _distributeByOwnership();\n        } else {\n            revert(\"Invalid distribution method\");\n        }\n    }\n\n    function _distributeEqually() private {\n        uint256 totalValue = _getTotalAssetValue();\n        uint256 halfValue = totalValue / 2;\n\n        uint256 spouse1Share = 0;\n        uint256 spouse2Share = 0;\n\n        for (uint256 i = 0; i < assets.length; i++) {\n            if (spouse1Share < halfValue && spouse2Share < halfValue) {\n                assets[i].owner = (spouse1Share <= spouse2Share) ? spouse1 : spouse2;\n                if (assets[i].owner == spouse1) {\n                    spouse1Share += assets[i].value;\n                } else {\n                    spouse2Share += assets[i].value;\n                }\n            }\n        }\n\n        emit Divorce(spouse1, spouse2, spouse1Share, spouse2Share);\n    }\n\n    function _distributeProportionally() private {\n        uint256 totalValue = _getTotalAssetValue();\n        uint256 spouse1Share = (totalValue * 60) / 100;  // Example: 60% to spouse1\n        uint256 spouse2Share = totalValue - spouse1Share;  // 40% to spouse2\n\n        uint256 currentSpouse1Share = 0;\n        uint256 currentSpouse2Share = 0;\n\n        for (uint256 i = 0; i < assets.length; i++) {\n            if (currentSpouse1Share < spouse1Share && currentSpouse2Share < spouse2Share) {\n                assets[i].owner = (currentSpouse1Share <= currentSpouse2Share) ? spouse1 : spouse2;\n                if (assets[i].owner == spouse1) {\n                    currentSpouse1Share += assets[i].value;\n                } else {\n                    currentSpouse2Share += assets[i].value;\n                }\n            }\n        }\n\n        emit Divorce(spouse1, spouse2, currentSpouse1Share, currentSpouse2Share);\n    }\n\n    function _distributeByOwnership() private {\n        uint256 spouse1Share = 0;\n        uint256 spouse2Share = 0;\n\n        for (uint256 i = 0; i < assets.length; i++) {\n            if (assets[i].owner == spouse1) {\n                spouse1Share += assets[i].value;\n            } else if (assets[i].owner == spouse2) {\n                spouse2Share += assets[i].value;\n            }\n        }\n\n        emit Divorce(spouse1, spouse2, spouse1Share, spouse2Share);\n    }\n\n    function _getTotalAssetValue() private view returns (uint256 totalValue) {\n        for (uint256 i = 0; i < assets.length; i++) {\n            totalValue += assets[i].value;\n        }\n    }\n\n    function getAssetsByOwner(address owner) public view returns (uint256[] memory) {\n        return ownerAssets[owner];\n    }\n\n    function getAssetDetails(uint256 assetIndex) public view returns (string memory name, uint256 value, bool isTokenized, address owner) {\n        require(assetIndex < assets.length, \"Invalid asset index\");\n        Asset memory asset = assets[assetIndex];\n        return (asset.name, asset.value, asset.isTokenized, asset.owner);\n    }\n\n    function getAssetsCount() public view returns (uint256) {\n        return assets.length;\n    }\n}\n",
  "sourcePath": "C:\\Users\\sarth\\Projects\\smart-marriage-contract\\backend\\contracts\\marriage.sol",
  "compiler": {
    "name": "solc",
    "version": "0.8.21+commit.d9974bed.Emscripten.clang"
  },
  "schemaVersion": "3.4.16",
  "updatedAt": "2024-11-26T07:44:00.068Z",
  "networkType": "ethereum",
  "devdoc": {
    "kind": "dev",
    "methods": {},
    "version": 1
  },
  "userdoc": {
    "kind": "user",
    "methods": {},
    "version": 1
  }
}