{
  "contractName": "MarriageContract",
  "abi": [
    {
      "inputs": [
        {
          "internalType": "address",
          "name": "_spouse1",
          "type": "address"
        },
        {
          "internalType": "address",
          "name": "_spouse2",
          "type": "address"
        }
      ],
      "stateMutability": "nonpayable",
      "type": "constructor"
    },
    {
      "anonymous": false,
      "inputs": [
        {
          "indexed": false,
          "internalType": "string",
          "name": "name",
          "type": "string"
        },
        {
          "indexed": false,
          "internalType": "uint256",
          "name": "value",
          "type": "uint256"
        },
        {
          "indexed": false,
          "internalType": "bool",
          "name": "isTokenized",
          "type": "bool"
        },
        {
          "indexed": true,
          "internalType": "address",
          "name": "owner",
          "type": "address"
        }
      ],
      "name": "AssetAdded",
      "type": "event"
    },
    {
      "anonymous": false,
      "inputs": [
        {
          "indexed": false,
          "internalType": "string",
          "name": "name",
          "type": "string"
        },
        {
          "indexed": true,
          "internalType": "address",
          "name": "newOwner",
          "type": "address"
        }
      ],
      "name": "AssetTransferred",
      "type": "event"
    },
    {
      "anonymous": false,
      "inputs": [
        {
          "indexed": true,
          "internalType": "address",
          "name": "spouse1",
          "type": "address"
        },
        {
          "indexed": true,
          "internalType": "address",
          "name": "spouse2",
          "type": "address"
        },
        {
          "indexed": false,
          "internalType": "uint256",
          "name": "spouse1Share",
          "type": "uint256"
        },
        {
          "indexed": false,
          "internalType": "uint256",
          "name": "spouse2Share",
          "type": "uint256"
        }
      ],
      "name": "Divorce",
      "type": "event"
    },
    {
      "anonymous": false,
      "inputs": [
        {
          "indexed": true,
          "internalType": "address",
          "name": "spouse",
          "type": "address"
        }
      ],
      "name": "DivorceInitiated",
      "type": "event"
    },
    {
      "anonymous": false,
      "inputs": [
        {
          "indexed": true,
          "internalType": "address",
          "name": "spouse1",
          "type": "address"
        },
        {
          "indexed": true,
          "internalType": "address",
          "name": "spouse2",
          "type": "address"
        }
      ],
      "name": "Marriage",
      "type": "event"
    },
    {
      "inputs": [
        {
          "internalType": "uint256",
          "name": "",
          "type": "uint256"
        }
      ],
      "name": "assets",
      "outputs": [
        {
          "internalType": "string",
          "name": "name",
          "type": "string"
        },
        {
          "internalType": "uint256",
          "name": "value",
          "type": "uint256"
        },
        {
          "internalType": "bool",
          "name": "isTokenized",
          "type": "bool"
        },
        {
          "internalType": "address",
          "name": "owner",
          "type": "address"
        }
      ],
      "stateMutability": "view",
      "type": "function",
      "constant": true
    },
    {
      "inputs": [],
      "name": "isMarried",
      "outputs": [
        {
          "internalType": "bool",
          "name": "",
          "type": "bool"
        }
      ],
      "stateMutability": "view",
      "type": "function",
      "constant": true
    },
    {
      "inputs": [
        {
          "internalType": "address",
          "name": "",
          "type": "address"
        },
        {
          "internalType": "uint256",
          "name": "",
          "type": "uint256"
        }
      ],
      "name": "ownerAssets",
      "outputs": [
        {
          "internalType": "uint256",
          "name": "",
          "type": "uint256"
        }
      ],
      "stateMutability": "view",
      "type": "function",
      "constant": true
    },
    {
      "inputs": [],
      "name": "spouse1",
      "outputs": [
        {
          "internalType": "address",
          "name": "",
          "type": "address"
        }
      ],
      "stateMutability": "view",
      "type": "function",
      "constant": true
    },
    {
      "inputs": [],
      "name": "spouse2",
      "outputs": [
        {
          "internalType": "address",
          "name": "",
          "type": "address"
        }
      ],
      "stateMutability": "view",
      "type": "function",
      "constant": true
    },
    {
      "inputs": [
        {
          "internalType": "string",
          "name": "name",
          "type": "string"
        },
        {
          "internalType": "uint256",
          "name": "value",
          "type": "uint256"
        },
        {
          "internalType": "bool",
          "name": "isTokenized",
          "type": "bool"
        },
        {
          "internalType": "address",
          "name": "owner",
          "type": "address"
        }
      ],
      "name": "addAsset",
      "outputs": [],
      "stateMutability": "nonpayable",
      "type": "function"
    },
    {
      "inputs": [],
      "name": "initiateDivorce",
      "outputs": [],
      "stateMutability": "nonpayable",
      "type": "function"
    },
    {
      "inputs": [
        {
          "internalType": "string",
          "name": "method",
          "type": "string"
        }
      ],
      "name": "distributeAssets",
      "outputs": [],
      "stateMutability": "nonpayable",
      "type": "function"
    },
    {
      "inputs": [
        {
          "internalType": "address",
          "name": "owner",
          "type": "address"
        }
      ],
      "name": "getAssetsByOwner",
      "outputs": [
        {
          "internalType": "uint256[]",
          "name": "",
          "type": "uint256[]"
        }
      ],
      "stateMutability": "view",
      "type": "function",
      "constant": true
    },
    {
      "inputs": [
        {
          "internalType": "uint256",
          "name": "assetIndex",
          "type": "uint256"
        }
      ],
      "name": "getAssetDetails",
      "outputs": [
        {
          "internalType": "string",
          "name": "name",
          "type": "string"
        },
        {
          "internalType": "uint256",
          "name": "value",
          "type": "uint256"
        },
        {
          "internalType": "bool",
          "name": "isTokenized",
          "type": "bool"
        },
        {
          "internalType": "address",
          "name": "owner",
          "type": "address"
        }
      ],
      "stateMutability": "view",
      "type": "function",
      "constant": true
    },
    {
      "inputs": [],
      "name": "getAssetsCount",
      "outputs": [
        {
          "internalType": "uint256",
          "name": "",
          "type": "uint256"
        }
      ],
      "stateMutability": "view",
      "type": "function",
      "constant": true
    }
  ],
  "bytecode": "0x608060405234801562000010575f80fd5b506040516200257c3803806200257c8339818101604052810190620000369190620001d6565b815f806101000a81548173ffffffffffffffffffffffffffffffffffffffff021916908373ffffffffffffffffffffffffffffffffffffffff1602179055508060015f6101000a81548173ffffffffffffffffffffffffffffffffffffffff021916908373ffffffffffffffffffffffffffffffffffffffff16021790555060018060146101000a81548160ff02191690831515021790555060015f9054906101000a900473ffffffffffffffffffffffffffffffffffffffff1673ffffffffffffffffffffffffffffffffffffffff165f8054906101000a900473ffffffffffffffffffffffffffffffffffffffff1673ffffffffffffffffffffffffffffffffffffffff167f1f06687311f13f3dbfbf7d72190a1d600769ed13ca058bce01da65315016a2b460405160405180910390a350506200021b565b5f80fd5b5f73ffffffffffffffffffffffffffffffffffffffff82169050919050565b5f620001a08262000175565b9050919050565b620001b28162000194565b8114620001bd575f80fd5b50565b5f81519050620001d081620001a7565b92915050565b5f8060408385031215620001ef57620001ee62000171565b5b5f620001fe85828601620001c0565b92505060206200021185828601620001c0565b9150509250929050565b61235380620002295f395ff3fe608060405234801561000f575f80fd5b50600436106100a7575f3560e01c80639043a5081161006f5780639043a50814610163578063a1f24b3d1461017f578063a702314d146101b2578063cf35bdd0146101d0578063dd36d6a514610203578063fb6a90f81461020d576100a7565b80630aac5dfd146100ab578063276f0934146100c9578063455bd951146100f95780634d4cb9851461012957806353605f4814610145575b5f80fd5b6100b361022b565b6040516100c09190611577565b60405180910390f35b6100e360048036038101906100de91906115fb565b610237565b6040516100f091906116dd565b60405180910390f35b610113600480360381019061010e9190611727565b6102ca565b6040516101209190611577565b60405180910390f35b610143600480360381019061013e91906118a1565b6102f5565b005b61014d6105bc565b60405161015a91906118f7565b60405180910390f35b61017d60048036038101906101789190611945565b6105e1565b005b610199600480360381019061019491906119c5565b6108ca565b6040516101a99493929190611a79565b60405180910390f35b6101ba610a70565b6040516101c79190611ac3565b60405180910390f35b6101ea60048036038101906101e591906119c5565b610a83565b6040516101fa9493929190611a79565b60405180910390f35b61020b610b70565b005b610215610d02565b60405161022291906118f7565b60405180910390f35b5f600280549050905090565b606060035f8373ffffffffffffffffffffffffffffffffffffffff1673ffffffffffffffffffffffffffffffffffffffff1681526020019081526020015f208054806020026020016040519081016040528092919081815260200182805480156102be57602002820191905f5260205f20905b8154815260200190600101908083116102aa575b50505050509050919050565b6003602052815f5260405f2081815481106102e3575f80fd5b905f5260205f20015f91509150505481565b5f8054906101000a900473ffffffffffffffffffffffffffffffffffffffff1673ffffffffffffffffffffffffffffffffffffffff163373ffffffffffffffffffffffffffffffffffffffff16148061039a575060015f9054906101000a900473ffffffffffffffffffffffffffffffffffffffff1673ffffffffffffffffffffffffffffffffffffffff163373ffffffffffffffffffffffffffffffffffffffff16145b6103d9576040517f08c379a00000000000000000000000000000000000000000000000000000000081526004016103d090611b26565b60405180910390fd5b600160149054906101000a900460ff1615610429576040517f08c379a000000000000000000000000000000000000000000000000000000000815260040161042090611bb4565b60405180910390fd5b5f610432610d25565b90505f8111610476576040517f08c379a000000000000000000000000000000000000000000000000000000000815260040161046d90611c42565b60405180910390fd5b6040518060400160405280600581526020017f657175616c000000000000000000000000000000000000000000000000000000815250805190602001208280519060200120036104cd576104c8610d80565b6105b8565b6040518060400160405280600c81526020017f70726f706f7274696f6e616c0000000000000000000000000000000000000000815250805190602001208280519060200120036105245761051f61102f565b6105b7565b6040518060400160405280600981526020017f6f776e65727368697000000000000000000000000000000000000000000000008152508051906020012082805190602001200361057b576105766112fa565b6105b6565b6040517f08c379a00000000000000000000000000000000000000000000000000000000081526004016105ad90611caa565b60405180910390fd5b5b5b5050565b60015f9054906101000a900473ffffffffffffffffffffffffffffffffffffffff1681565b5f8054906101000a900473ffffffffffffffffffffffffffffffffffffffff1673ffffffffffffffffffffffffffffffffffffffff163373ffffffffffffffffffffffffffffffffffffffff161480610686575060015f9054906101000a900473ffffffffffffffffffffffffffffffffffffffff1673ffffffffffffffffffffffffffffffffffffffff163373ffffffffffffffffffffffffffffffffffffffff16145b6106c5576040517f08c379a00000000000000000000000000000000000000000000000000000000081526004016106bc90611b26565b60405180910390fd5b600160149054906101000a900460ff16610714576040517f08c379a000000000000000000000000000000000000000000000000000000000815260040161070b90611d38565b60405180910390fd5b5f604051806080016040528086815260200185815260200184151581526020018373ffffffffffffffffffffffffffffffffffffffff168152509050600281908060018154018082558091505060019003905f5260205f2090600302015f909190919091505f820151815f01908161078c9190611f50565b50602082015181600101556040820151816002015f6101000a81548160ff02191690831515021790555060608201518160020160016101000a81548173ffffffffffffffffffffffffffffffffffffffff021916908373ffffffffffffffffffffffffffffffffffffffff160217905550505060035f8373ffffffffffffffffffffffffffffffffffffffff1673ffffffffffffffffffffffffffffffffffffffff1681526020019081526020015f20600160028054905061084e919061204c565b908060018154018082558091505060019003905f5260205f20015f90919091909150558173ffffffffffffffffffffffffffffffffffffffff167fb69ee633e44efc83a2a42766fd6dc214c73784d0f7c51020cc6a59f20e19ba268686866040516108bb9392919061207f565b60405180910390a25050505050565b60605f805f6002805490508510610916576040517f08c379a000000000000000000000000000000000000000000000000000000000815260040161090d90612105565b60405180910390fd5b5f6002868154811061092b5761092a612123565b5b905f5260205f2090600302016040518060800160405290815f8201805461095190611d83565b80601f016020809104026020016040519081016040528092919081815260200182805461097d90611d83565b80156109c85780601f1061099f576101008083540402835291602001916109c8565b820191905f5260205f20905b8154815290600101906020018083116109ab57829003601f168201915b5050505050815260200160018201548152602001600282015f9054906101000a900460ff161515151581526020016002820160019054906101000a900473ffffffffffffffffffffffffffffffffffffffff1673ffffffffffffffffffffffffffffffffffffffff1673ffffffffffffffffffffffffffffffffffffffff16815250509050805f01518160200151826040015183606001519450945094509450509193509193565b600160149054906101000a900460ff1681565b60028181548110610a92575f80fd5b905f5260205f2090600302015f91509050805f018054610ab190611d83565b80601f0160208091040260200160405190810160405280929190818152602001828054610add90611d83565b8015610b285780601f10610aff57610100808354040283529160200191610b28565b820191905f5260205f20905b815481529060010190602001808311610b0b57829003601f168201915b505050505090806001015490806002015f9054906101000a900460ff16908060020160019054906101000a900473ffffffffffffffffffffffffffffffffffffffff16905084565b5f8054906101000a900473ffffffffffffffffffffffffffffffffffffffff1673ffffffffffffffffffffffffffffffffffffffff163373ffffffffffffffffffffffffffffffffffffffff161480610c15575060015f9054906101000a900473ffffffffffffffffffffffffffffffffffffffff1673ffffffffffffffffffffffffffffffffffffffff163373ffffffffffffffffffffffffffffffffffffffff16145b610c54576040517f08c379a0000000000000000000000000000000000000000000000000000000008152600401610c4b90611b26565b60405180910390fd5b600160149054906101000a900460ff16610ca3576040517f08c379a0000000000000000000000000000000000000000000000000000000008152600401610c9a906121c0565b60405180910390fd5b5f600160146101000a81548160ff0219169083151502179055503373ffffffffffffffffffffffffffffffffffffffff167fd7cd4e5586cc81696a25f9f8984878b2ba504039d968729d346d89826ce8887060405160405180910390a2565b5f8054906101000a900473ffffffffffffffffffffffffffffffffffffffff1681565b5f805f90505b600280549050811015610d7c5760028181548110610d4c57610d4b612123565b5b905f5260205f2090600302016001015482610d6791906121de565b91508080610d7490612211565b915050610d2b565b5090565b5f610d89610d25565b90505f600282610d999190612285565b90505f805f5b600280549050811015610f81578383108015610dba57508382105b15610f6e5781831115610dee5760015f9054906101000a900473ffffffffffffffffffffffffffffffffffffffff16610e0f565b5f8054906101000a900473ffffffffffffffffffffffffffffffffffffffff165b60028281548110610e2357610e22612123565b5b905f5260205f20906003020160020160016101000a81548173ffffffffffffffffffffffffffffffffffffffff021916908373ffffffffffffffffffffffffffffffffffffffff1602179055505f8054906101000a900473ffffffffffffffffffffffffffffffffffffffff1673ffffffffffffffffffffffffffffffffffffffff1660028281548110610eba57610eb9612123565b5b905f5260205f20906003020160020160019054906101000a900473ffffffffffffffffffffffffffffffffffffffff1673ffffffffffffffffffffffffffffffffffffffff1603610f3b5760028181548110610f1957610f18612123565b5b905f5260205f2090600302016001015483610f3491906121de565b9250610f6d565b60028181548110610f4f57610f4e612123565b5b905f5260205f2090600302016001015482610f6a91906121de565b91505b5b8080610f7990612211565b915050610d9f565b5060015f9054906101000a900473ffffffffffffffffffffffffffffffffffffffff1673ffffffffffffffffffffffffffffffffffffffff165f8054906101000a900473ffffffffffffffffffffffffffffffffffffffff1673ffffffffffffffffffffffffffffffffffffffff167fd3fe828503e2482f1db99eb8630720cbc4a509c71046320c3df868124ca2409184846040516110219291906122b5565b60405180910390a350505050565b5f611038610d25565b90505f6064603c8361104a91906122dc565b6110549190612285565b90505f8183611063919061204c565b90505f805f5b60028054905081101561124b57848310801561108457508382105b1561123857818311156110b85760015f9054906101000a900473ffffffffffffffffffffffffffffffffffffffff166110d9565b5f8054906101000a900473ffffffffffffffffffffffffffffffffffffffff165b600282815481106110ed576110ec612123565b5b905f5260205f20906003020160020160016101000a81548173ffffffffffffffffffffffffffffffffffffffff021916908373ffffffffffffffffffffffffffffffffffffffff1602179055505f8054906101000a900473ffffffffffffffffffffffffffffffffffffffff1673ffffffffffffffffffffffffffffffffffffffff166002828154811061118457611183612123565b5b905f5260205f20906003020160020160019054906101000a900473ffffffffffffffffffffffffffffffffffffffff1673ffffffffffffffffffffffffffffffffffffffff160361120557600281815481106111e3576111e2612123565b5b905f5260205f20906003020160010154836111fe91906121de565b9250611237565b6002818154811061121957611218612123565b5b905f5260205f209060030201600101548261123491906121de565b91505b5b808061124390612211565b915050611069565b5060015f9054906101000a900473ffffffffffffffffffffffffffffffffffffffff1673ffffffffffffffffffffffffffffffffffffffff165f8054906101000a900473ffffffffffffffffffffffffffffffffffffffff1673ffffffffffffffffffffffffffffffffffffffff167fd3fe828503e2482f1db99eb8630720cbc4a509c71046320c3df868124ca2409184846040516112eb9291906122b5565b60405180910390a35050505050565b5f805f5b6002805490508110156114b3575f8054906101000a900473ffffffffffffffffffffffffffffffffffffffff1673ffffffffffffffffffffffffffffffffffffffff166002828154811061135557611354612123565b5b905f5260205f20906003020160020160019054906101000a900473ffffffffffffffffffffffffffffffffffffffff1673ffffffffffffffffffffffffffffffffffffffff16036113d657600281815481106113b4576113b3612123565b5b905f5260205f20906003020160010154836113cf91906121de565b92506114a0565b60015f9054906101000a900473ffffffffffffffffffffffffffffffffffffffff1673ffffffffffffffffffffffffffffffffffffffff166002828154811061142257611421612123565b5b905f5260205f20906003020160020160019054906101000a900473ffffffffffffffffffffffffffffffffffffffff1673ffffffffffffffffffffffffffffffffffffffff160361149f576002818154811061148157611480612123565b5b905f5260205f209060030201600101548261149c91906121de565b91505b5b80806114ab90612211565b9150506112fe565b5060015f9054906101000a900473ffffffffffffffffffffffffffffffffffffffff1673ffffffffffffffffffffffffffffffffffffffff165f8054906101000a900473ffffffffffffffffffffffffffffffffffffffff1673ffffffffffffffffffffffffffffffffffffffff167fd3fe828503e2482f1db99eb8630720cbc4a509c71046320c3df868124ca2409184846040516115539291906122b5565b60405180910390a35050565b5f819050919050565b6115718161155f565b82525050565b5f60208201905061158a5f830184611568565b92915050565b5f604051905090565b5f80fd5b5f80fd5b5f73ffffffffffffffffffffffffffffffffffffffff82169050919050565b5f6115ca826115a1565b9050919050565b6115da816115c0565b81146115e4575f80fd5b50565b5f813590506115f5816115d1565b92915050565b5f602082840312156116105761160f611599565b5b5f61161d848285016115e7565b91505092915050565b5f81519050919050565b5f82825260208201905092915050565b5f819050602082019050919050565b6116588161155f565b82525050565b5f611669838361164f565b60208301905092915050565b5f602082019050919050565b5f61168b82611626565b6116958185611630565b93506116a083611640565b805f5b838110156116d05781516116b7888261165e565b97506116c283611675565b9250506001810190506116a3565b5085935050505092915050565b5f6020820190508181035f8301526116f58184611681565b905092915050565b6117068161155f565b8114611710575f80fd5b50565b5f81359050611721816116fd565b92915050565b5f806040838503121561173d5761173c611599565b5b5f61174a858286016115e7565b925050602061175b85828601611713565b9150509250929050565b5f80fd5b5f80fd5b5f601f19601f8301169050919050565b7f4e487b71000000000000000000000000000000000000000000000000000000005f52604160045260245ffd5b6117b38261176d565b810181811067ffffffffffffffff821117156117d2576117d161177d565b5b80604052505050565b5f6117e4611590565b90506117f082826117aa565b919050565b5f67ffffffffffffffff82111561180f5761180e61177d565b5b6118188261176d565b9050602081019050919050565b828183375f83830152505050565b5f611845611840846117f5565b6117db565b90508281526020810184848401111561186157611860611769565b5b61186c848285611825565b509392505050565b5f82601f83011261188857611887611765565b5b8135611898848260208601611833565b91505092915050565b5f602082840312156118b6576118b5611599565b5b5f82013567ffffffffffffffff8111156118d3576118d261159d565b5b6118df84828501611874565b91505092915050565b6118f1816115c0565b82525050565b5f60208201905061190a5f8301846118e8565b92915050565b5f8115159050919050565b61192481611910565b811461192e575f80fd5b50565b5f8135905061193f8161191b565b92915050565b5f805f806080858703121561195d5761195c611599565b5b5f85013567ffffffffffffffff81111561197a5761197961159d565b5b61198687828801611874565b945050602061199787828801611713565b93505060406119a887828801611931565b92505060606119b9878288016115e7565b91505092959194509250565b5f602082840312156119da576119d9611599565b5b5f6119e784828501611713565b91505092915050565b5f81519050919050565b5f82825260208201905092915050565b5f5b83811015611a27578082015181840152602081019050611a0c565b5f8484015250505050565b5f611a3c826119f0565b611a4681856119fa565b9350611a56818560208601611a0a565b611a5f8161176d565b840191505092915050565b611a7381611910565b82525050565b5f6080820190508181035f830152611a918187611a32565b9050611aa06020830186611568565b611aad6040830185611a6a565b611aba60608301846118e8565b95945050505050565b5f602082019050611ad65f830184611a6a565b92915050565b7f4e6f7420617574686f72697a65640000000000000000000000000000000000005f82015250565b5f611b10600e836119fa565b9150611b1b82611adc565b602082019050919050565b5f6020820190508181035f830152611b3d81611b04565b9050919050565b7f4d75737420696e697469617465206469766f726365206265666f7265206173735f8201527f657420646973747269627574696f6e0000000000000000000000000000000000602082015250565b5f611b9e602f836119fa565b9150611ba982611b44565b604082019050919050565b5f6020820190508181035f830152611bcb81611b92565b9050919050565b7f546f74616c2061737365742076616c7565206d757374206265206772656174655f8201527f72207468616e207a65726f000000000000000000000000000000000000000000602082015250565b5f611c2c602b836119fa565b9150611c3782611bd2565b604082019050919050565b5f6020820190508181035f830152611c5981611c20565b9050919050565b7f496e76616c696420646973747269627574696f6e206d6574686f6400000000005f82015250565b5f611c94601b836119fa565b9150611c9f82611c60565b602082019050919050565b5f6020820190508181035f830152611cc181611c88565b9050919050565b7f43616e6e6f742061646420617373657473206166746572206469766f726365205f8201527f696e6974696174696f6e00000000000000000000000000000000000000000000602082015250565b5f611d22602a836119fa565b9150611d2d82611cc8565b604082019050919050565b5f6020820190508181035f830152611d4f81611d16565b9050919050565b7f4e487b71000000000000000000000000000000000000000000000000000000005f52602260045260245ffd5b5f6002820490506001821680611d9a57607f821691505b602082108103611dad57611dac611d56565b5b50919050565b5f819050815f5260205f209050919050565b5f6020601f8301049050919050565b5f82821b905092915050565b5f60088302611e0f7fffffffffffffffffffffffffffffffffffffffffffffffffffffffffffffffff82611dd4565b611e198683611dd4565b95508019841693508086168417925050509392505050565b5f819050919050565b5f611e54611e4f611e4a8461155f565b611e31565b61155f565b9050919050565b5f819050919050565b611e6d83611e3a565b611e81611e7982611e5b565b848454611de0565b825550505050565b5f90565b611e95611e89565b611ea0818484611e64565b505050565b5b81811015611ec357611eb85f82611e8d565b600181019050611ea6565b5050565b601f821115611f0857611ed981611db3565b611ee284611dc5565b81016020851015611ef1578190505b611f05611efd85611dc5565b830182611ea5565b50505b505050565b5f82821c905092915050565b5f611f285f1984600802611f0d565b1980831691505092915050565b5f611f408383611f19565b9150826002028217905092915050565b611f59826119f0565b67ffffffffffffffff811115611f7257611f7161177d565b5b611f7c8254611d83565b611f87828285611ec7565b5f60209050601f831160018114611fb8575f8415611fa6578287015190505b611fb08582611f35565b865550612017565b601f198416611fc686611db3565b5f5b82811015611fed57848901518255600182019150602085019450602081019050611fc8565b8683101561200a5784890151612006601f891682611f19565b8355505b6001600288020188555050505b505050505050565b7f4e487b71000000000000000000000000000000000000000000000000000000005f52601160045260245ffd5b5f6120568261155f565b91506120618361155f565b92508282039050818111156120795761207861201f565b5b92915050565b5f6060820190508181035f8301526120978186611a32565b90506120a66020830185611568565b6120b36040830184611a6a565b949350505050565b7f496e76616c696420617373657420696e646578000000000000000000000000005f82015250565b5f6120ef6013836119fa565b91506120fa826120bb565b602082019050919050565b5f6020820190508181035f83015261211c816120e3565b9050919050565b7f4e487b71000000000000000000000000000000000000000000000000000000005f52603260045260245ffd5b7f4469766f72636520616c726561647920696e69746961746564206f72206e6f745f8201527f206d617272696564000000000000000000000000000000000000000000000000602082015250565b5f6121aa6028836119fa565b91506121b582612150565b604082019050919050565b5f6020820190508181035f8301526121d78161219e565b9050919050565b5f6121e88261155f565b91506121f38361155f565b925082820190508082111561220b5761220a61201f565b5b92915050565b5f61221b8261155f565b91507fffffffffffffffffffffffffffffffffffffffffffffffffffffffffffffffff820361224d5761224c61201f565b5b600182019050919050565b7f4e487b71000000000000000000000000000000000000000000000000000000005f52601260045260245ffd5b5f61228f8261155f565b915061229a8361155f565b9250826122aa576122a9612258565b5b828204905092915050565b5f6040820190506122c85f830185611568565b6122d56020830184611568565b9392505050565b5f6122e68261155f565b91506122f18361155f565b92508282026122ff8161155f565b915082820484148315176123165761231561201f565b5b509291505056fea264697066735822122063fd9e76633f718b2100c6baab56ac91089b20ec6cd0879242cd22e05a54197b64736f6c63430008150033",
  "immutableReferences": {},
  "source": "// SPDX-License-Identifier: MIT\npragma solidity ^0.8.21;\n\ncontract MarriageContract {\n    address public spouse1;\n    address public spouse2;\n    bool public isMarried;\n\n    struct Asset {\n        string name;\n        uint256 value;\n        bool isTokenized;\n        address owner;\n    }\n     \n    Asset[] public assets;\n    mapping(address => uint256[]) public ownerAssets; // Mapping to track assets by owner\n    \n    event Marriage(address indexed spouse1, address indexed spouse2);\n    event DivorceInitiated(address indexed spouse);\n    event Divorce(address indexed spouse1, address indexed spouse2, uint256 spouse1Share, uint256 spouse2Share);\n    event AssetAdded(string name, uint256 value, bool isTokenized, address indexed owner);\n    event AssetTransferred(string name, address indexed newOwner);\n\n    modifier onlySpouses() {\n        require(msg.sender == spouse1 || msg.sender == spouse2, \"Not authorized\");\n        _;\n    }\n\n    constructor(address _spouse1, address _spouse2) {\n        spouse1 = _spouse1;\n        spouse2 = _spouse2;\n        isMarried = true;\n        emit Marriage(spouse1, spouse2);\n    }\n\n    function addAsset(string memory name, uint256 value, bool isTokenized, address owner) public onlySpouses {\n        require(isMarried, \"Cannot add assets after divorce initiation\");\n        Asset memory newAsset = Asset(name, value, isTokenized, owner);\n        assets.push(newAsset);\n        ownerAssets[owner].push(assets.length - 1); // Store the index of the asset in the owner's list\n        emit AssetAdded(name, value, isTokenized, owner);\n    }\n    \n    // Function to initiate divorce\n    function initiateDivorce() public onlySpouses {\n        require(isMarried, \"Divorce already initiated or not married\");\n        isMarried = false;\n        emit DivorceInitiated(msg.sender);\n    }\n    \n    // Function to distribute assets using different methods\n    function distributeAssets(string memory method) public onlySpouses {\n        require(!isMarried, \"Must initiate divorce before asset distribution\");\n\n        uint256 totalValue = _getTotalAssetValue();\n        require(totalValue > 0, \"Total asset value must be greater than zero\");\n\n        if (keccak256(bytes(method)) == keccak256(bytes(\"equal\"))) {\n            _distributeEqually();\n        } else if (keccak256(bytes(method)) == keccak256(bytes(\"proportional\"))) {\n            _distributeProportionally();\n        } else if (keccak256(bytes(method)) == keccak256(bytes(\"ownership\"))) {\n            _distributeByOwnership();\n        } else {\n            revert(\"Invalid distribution method\");\n        }\n    }\n\n    function _distributeEqually() private {\n        uint256 totalValue = _getTotalAssetValue();\n        uint256 halfValue = totalValue / 2;\n\n        uint256 spouse1Share = 0;\n        uint256 spouse2Share = 0;\n\n        for (uint256 i = 0; i < assets.length; i++) {\n            if (spouse1Share < halfValue && spouse2Share < halfValue) {\n                assets[i].owner = (spouse1Share <= spouse2Share) ? spouse1 : spouse2;\n                if (assets[i].owner == spouse1) {\n                    spouse1Share += assets[i].value;\n                } else {\n                    spouse2Share += assets[i].value;\n                }\n            }\n        }\n\n        emit Divorce(spouse1, spouse2, spouse1Share, spouse2Share);\n    }\n\n    function _distributeProportionally() private {\n        uint256 totalValue = _getTotalAssetValue();\n        uint256 spouse1Share = (totalValue * 60) / 100;  // Example: 60% to spouse1\n        uint256 spouse2Share = totalValue - spouse1Share;  // 40% to spouse2\n\n        uint256 currentSpouse1Share = 0;\n        uint256 currentSpouse2Share = 0;\n\n        for (uint256 i = 0; i < assets.length; i++) {\n            if (currentSpouse1Share < spouse1Share && currentSpouse2Share < spouse2Share) {\n                assets[i].owner = (currentSpouse1Share <= currentSpouse2Share) ? spouse1 : spouse2;\n                if (assets[i].owner == spouse1) {\n                    currentSpouse1Share += assets[i].value;\n                } else {\n                    currentSpouse2Share += assets[i].value;\n                }\n            }\n        }\n\n        emit Divorce(spouse1, spouse2, currentSpouse1Share, currentSpouse2Share);\n    }\n\n    function _distributeByOwnership() private {\n        uint256 spouse1Share = 0;\n        uint256 spouse2Share = 0;\n\n        for (uint256 i = 0; i < assets.length; i++) {\n            if (assets[i].owner == spouse1) {\n                spouse1Share += assets[i].value;\n            } else if (assets[i].owner == spouse2) {\n                spouse2Share += assets[i].value;\n            }\n        }\n\n        emit Divorce(spouse1, spouse2, spouse1Share, spouse2Share);\n    }\n\n    function _getTotalAssetValue() private view returns (uint256 totalValue) {\n        for (uint256 i = 0; i < assets.length; i++) {\n            totalValue += assets[i].value;\n        }\n    }\n\n    function getAssetsByOwner(address owner) public view returns (uint256[] memory) {\n        return ownerAssets[owner];\n    }\n\n    function getAssetDetails(uint256 assetIndex) public view returns (string memory name, uint256 value, bool isTokenized, address owner) {\n        require(assetIndex < assets.length, \"Invalid asset index\");\n        Asset memory asset = assets[assetIndex];\n        return (asset.name, asset.value, asset.isTokenized, asset.owner);\n    }\n\n    function getAssetsCount() public view returns (uint256) {\n        return assets.length;\n    }\n}\n",
  "sourcePath": "/home/lsaiti345/marriage-contract/MarriageContractApp/contracts/marriage.sol",
  "compiler": {
    "name": "solc",
    "version": "0.8.21+commit.d9974bed.Emscripten.clang"
  },
  "schemaVersion": "3.4.16",
  "updatedAt": "2024-11-04T17:05:16.199Z",
  "networkType": "ethereum",
  "devdoc": {
    "kind": "dev",
    "methods": {},
    "version": 1
  },
  "userdoc": {
    "kind": "user",
    "methods": {},
    "version": 1
  }
}