{
  "contractName": "MarriageContract",
  "abi": [
    {
      "inputs": [
        {
          "internalType": "address",
          "name": "_spouse1",
          "type": "address"
        },
        {
          "internalType": "address",
          "name": "_spouse2",
          "type": "address"
        }
      ],
      "stateMutability": "nonpayable",
      "type": "constructor"
    },
    {
      "anonymous": false,
      "inputs": [
        {
          "indexed": false,
          "internalType": "string",
          "name": "name",
          "type": "string"
        },
        {
          "indexed": false,
          "internalType": "uint256",
          "name": "value",
          "type": "uint256"
        },
        {
          "indexed": false,
          "internalType": "bool",
          "name": "isTokenized",
          "type": "bool"
        },
        {
          "indexed": true,
          "internalType": "address",
          "name": "owner",
          "type": "address"
        }
      ],
      "name": "AssetAdded",
      "type": "event"
    },
    {
      "anonymous": false,
      "inputs": [
        {
          "indexed": false,
          "internalType": "string",
          "name": "name",
          "type": "string"
        },
        {
          "indexed": true,
          "internalType": "address",
          "name": "newOwner",
          "type": "address"
        }
      ],
      "name": "AssetTransferred",
      "type": "event"
    },
    {
      "anonymous": false,
      "inputs": [
        {
          "indexed": true,
          "internalType": "address",
          "name": "spouse1",
          "type": "address"
        },
        {
          "indexed": true,
          "internalType": "address",
          "name": "spouse2",
          "type": "address"
        },
        {
          "indexed": false,
          "internalType": "uint256",
          "name": "spouse1Share",
          "type": "uint256"
        },
        {
          "indexed": false,
          "internalType": "uint256",
          "name": "spouse2Share",
          "type": "uint256"
        }
      ],
      "name": "Divorce",
      "type": "event"
    },
    {
      "anonymous": false,
      "inputs": [
        {
          "indexed": true,
          "internalType": "address",
          "name": "spouse",
          "type": "address"
        }
      ],
      "name": "DivorceInitiated",
      "type": "event"
    },
    {
      "anonymous": false,
      "inputs": [
        {
          "indexed": true,
          "internalType": "address",
          "name": "spouse1",
          "type": "address"
        },
        {
          "indexed": true,
          "internalType": "address",
          "name": "spouse2",
          "type": "address"
        }
      ],
      "name": "Marriage",
      "type": "event"
    },
    {
      "inputs": [
        {
          "internalType": "uint256",
          "name": "",
          "type": "uint256"
        }
      ],
      "name": "assets",
      "outputs": [
        {
          "internalType": "string",
          "name": "name",
          "type": "string"
        },
        {
          "internalType": "uint256",
          "name": "value",
          "type": "uint256"
        },
        {
          "internalType": "bool",
          "name": "isTokenized",
          "type": "bool"
        },
        {
          "internalType": "address",
          "name": "owner",
          "type": "address"
        }
      ],
      "stateMutability": "view",
      "type": "function",
      "constant": true
    },
    {
      "inputs": [],
      "name": "isMarried",
      "outputs": [
        {
          "internalType": "bool",
          "name": "",
          "type": "bool"
        }
      ],
      "stateMutability": "view",
      "type": "function",
      "constant": true
    },
    {
      "inputs": [
        {
          "internalType": "address",
          "name": "",
          "type": "address"
        },
        {
          "internalType": "uint256",
          "name": "",
          "type": "uint256"
        }
      ],
      "name": "ownerAssets",
      "outputs": [
        {
          "internalType": "uint256",
          "name": "",
          "type": "uint256"
        }
      ],
      "stateMutability": "view",
      "type": "function",
      "constant": true
    },
    {
      "inputs": [],
      "name": "spouse1",
      "outputs": [
        {
          "internalType": "address",
          "name": "",
          "type": "address"
        }
      ],
      "stateMutability": "view",
      "type": "function",
      "constant": true
    },
    {
      "inputs": [],
      "name": "spouse2",
      "outputs": [
        {
          "internalType": "address",
          "name": "",
          "type": "address"
        }
      ],
      "stateMutability": "view",
      "type": "function",
      "constant": true
    },
    {
      "inputs": [
        {
          "internalType": "string",
          "name": "name",
          "type": "string"
        },
        {
          "internalType": "uint256",
          "name": "value",
          "type": "uint256"
        },
        {
          "internalType": "bool",
          "name": "isTokenized",
          "type": "bool"
        },
        {
          "internalType": "address",
          "name": "owner",
          "type": "address"
        }
      ],
      "name": "addAsset",
      "outputs": [
        {
          "internalType": "uint256",
          "name": "",
          "type": "uint256"
        }
      ],
      "stateMutability": "nonpayable",
      "type": "function"
    },
    {
      "inputs": [],
      "name": "listAssets",
      "outputs": [
        {
          "internalType": "string[]",
          "name": "assetNames",
          "type": "string[]"
        },
        {
          "internalType": "uint256[]",
          "name": "assetValues",
          "type": "uint256[]"
        }
      ],
      "stateMutability": "view",
      "type": "function",
      "constant": true
    },
    {
      "inputs": [
        {
          "internalType": "string",
          "name": "assetName",
          "type": "string"
        },
        {
          "internalType": "address",
          "name": "newOwner",
          "type": "address"
        }
      ],
      "name": "transferAssetByName",
      "outputs": [],
      "stateMutability": "nonpayable",
      "type": "function"
    },
    {
      "inputs": [
        {
          "internalType": "uint256",
          "name": "assetIndex",
          "type": "uint256"
        },
        {
          "internalType": "address",
          "name": "newOwner",
          "type": "address"
        }
      ],
      "name": "transferAsset",
      "outputs": [],
      "stateMutability": "nonpayable",
      "type": "function"
    },
    {
      "inputs": [],
      "name": "initiateDivorce",
      "outputs": [],
      "stateMutability": "nonpayable",
      "type": "function"
    },
    {
      "inputs": [
        {
          "internalType": "string",
          "name": "method",
          "type": "string"
        }
      ],
      "name": "distributeAssets",
      "outputs": [],
      "stateMutability": "nonpayable",
      "type": "function"
    },
    {
      "inputs": [
        {
          "internalType": "address",
          "name": "owner",
          "type": "address"
        }
      ],
      "name": "getAssetsByOwner",
      "outputs": [
        {
          "internalType": "uint256[]",
          "name": "",
          "type": "uint256[]"
        }
      ],
      "stateMutability": "view",
      "type": "function",
      "constant": true
    },
    {
      "inputs": [
        {
          "internalType": "uint256",
          "name": "assetIndex",
          "type": "uint256"
        }
      ],
      "name": "getAssetDetails",
      "outputs": [
        {
          "internalType": "string",
          "name": "name",
          "type": "string"
        },
        {
          "internalType": "uint256",
          "name": "value",
          "type": "uint256"
        },
        {
          "internalType": "bool",
          "name": "isTokenized",
          "type": "bool"
        },
        {
          "internalType": "address",
          "name": "owner",
          "type": "address"
        }
      ],
      "stateMutability": "view",
      "type": "function",
      "constant": true
    },
    {
      "inputs": [],
      "name": "getAssetsCount",
      "outputs": [
        {
          "internalType": "uint256",
          "name": "",
          "type": "uint256"
        }
      ],
      "stateMutability": "view",
      "type": "function",
      "constant": true
    }
  ],
  "bytecode": "0x608060405234801562000010575f80fd5b5060405162003336380380620033368339818101604052810190620000369190620001d6565b815f806101000a81548173ffffffffffffffffffffffffffffffffffffffff021916908373ffffffffffffffffffffffffffffffffffffffff1602179055508060015f6101000a81548173ffffffffffffffffffffffffffffffffffffffff021916908373ffffffffffffffffffffffffffffffffffffffff16021790555060018060146101000a81548160ff02191690831515021790555060015f9054906101000a900473ffffffffffffffffffffffffffffffffffffffff1673ffffffffffffffffffffffffffffffffffffffff165f8054906101000a900473ffffffffffffffffffffffffffffffffffffffff1673ffffffffffffffffffffffffffffffffffffffff167f1f06687311f13f3dbfbf7d72190a1d600769ed13ca058bce01da65315016a2b460405160405180910390a350506200021b565b5f80fd5b5f73ffffffffffffffffffffffffffffffffffffffff82169050919050565b5f620001a08262000175565b9050919050565b620001b28162000194565b8114620001bd575f80fd5b50565b5f81519050620001d081620001a7565b92915050565b5f8060408385031215620001ef57620001ee62000171565b5b5f620001fe85828601620001c0565b92505060206200021185828601620001c0565b9150509250929050565b61310d80620002295f395ff3fe608060405234801561000f575f80fd5b50600436106100e8575f3560e01c8063a1f24b3d1161008a578063dd36d6a511610064578063dd36d6a514610274578063eadeb9a31461027e578063fa62ee8d1461029d578063fb6a90f8146102b9576100e8565b8063a1f24b3d146101f0578063a702314d14610223578063cf35bdd014610241576100e8565b80634d4cb985116100c65780634d4cb9851461016a57806353605f481461018657806383832844146101a45780639043a508146101c0576100e8565b80630aac5dfd146100ec578063276f09341461010a578063455bd9511461013a575b5f80fd5b6100f46102d7565b6040516101019190611f18565b60405180910390f35b610124600480360381019061011f9190611f9c565b6102e3565b604051610131919061207e565b60405180910390f35b610154600480360381019061014f91906120c8565b610376565b6040516101619190611f18565b60405180910390f35b610184600480360381019061017f9190612242565b6103a1565b005b61018e610668565b60405161019b9190612298565b60405180910390f35b6101be60048036038101906101b991906122b1565b61068d565b005b6101da60048036038101906101d59190612340565b610a0a565b6040516101e79190611f18565b60405180910390f35b61020a600480360381019061020591906123c0565b610d0b565b60405161021a9493929190612474565b60405180910390f35b61022b610eb1565b60405161023891906124be565b60405180910390f35b61025b600480360381019061025691906123c0565b610ec4565b60405161026b9493929190612474565b60405180910390f35b61027c610fb1565b005b610286611143565b6040516102949291906125da565b60405180910390f35b6102b760048036038101906102b2919061260f565b6113ca565b005b6102c16116a3565b6040516102ce9190612298565b60405180910390f35b5f600280549050905090565b606060035f8373ffffffffffffffffffffffffffffffffffffffff1673ffffffffffffffffffffffffffffffffffffffff1681526020019081526020015f2080548060200260200160405190810160405280929190818152602001828054801561036a57602002820191905f5260205f20905b815481526020019060010190808311610356575b50505050509050919050565b6003602052815f5260405f20818154811061038f575f80fd5b905f5260205f20015f91509150505481565b5f8054906101000a900473ffffffffffffffffffffffffffffffffffffffff1673ffffffffffffffffffffffffffffffffffffffff163373ffffffffffffffffffffffffffffffffffffffff161480610446575060015f9054906101000a900473ffffffffffffffffffffffffffffffffffffffff1673ffffffffffffffffffffffffffffffffffffffff163373ffffffffffffffffffffffffffffffffffffffff16145b610485576040517f08c379a000000000000000000000000000000000000000000000000000000000815260040161047c90612697565b60405180910390fd5b600160149054906101000a900460ff16156104d5576040517f08c379a00000000000000000000000000000000000000000000000000000000081526004016104cc90612725565b60405180910390fd5b5f6104de6116c6565b90505f8111610522576040517f08c379a0000000000000000000000000000000000000000000000000000000008152600401610519906127b3565b60405180910390fd5b6040518060400160405280600581526020017f657175616c0000000000000000000000000000000000000000000000000000008152508051906020012082805190602001200361057957610574611721565b610664565b6040518060400160405280600c81526020017f70726f706f7274696f6e616c0000000000000000000000000000000000000000815250805190602001208280519060200120036105d0576105cb6119d0565b610663565b6040518060400160405280600981526020017f6f776e65727368697000000000000000000000000000000000000000000000008152508051906020012082805190602001200361062757610622611c9b565b610662565b6040517f08c379a00000000000000000000000000000000000000000000000000000000081526004016106599061281b565b60405180910390fd5b5b5b5050565b60015f9054906101000a900473ffffffffffffffffffffffffffffffffffffffff1681565b5f8054906101000a900473ffffffffffffffffffffffffffffffffffffffff1673ffffffffffffffffffffffffffffffffffffffff163373ffffffffffffffffffffffffffffffffffffffff161480610732575060015f9054906101000a900473ffffffffffffffffffffffffffffffffffffffff1673ffffffffffffffffffffffffffffffffffffffff163373ffffffffffffffffffffffffffffffffffffffff16145b610771576040517f08c379a000000000000000000000000000000000000000000000000000000000815260040161076890612697565b60405180910390fd5b5f805b6002805490508110156109c45783805190602001206002828154811061079d5761079c612839565b5b905f5260205f2090600302015f016040516107b8919061295f565b6040518091039020036109b1573373ffffffffffffffffffffffffffffffffffffffff16600282815481106107f0576107ef612839565b5b905f5260205f20906003020160020160019054906101000a900473ffffffffffffffffffffffffffffffffffffffff1673ffffffffffffffffffffffffffffffffffffffff1614610876576040517f08c379a000000000000000000000000000000000000000000000000000000000815260040161086d906129bf565b60405180910390fd5b826002828154811061088b5761088a612839565b5b905f5260205f20906003020160020160016101000a81548173ffffffffffffffffffffffffffffffffffffffff021916908373ffffffffffffffffffffffffffffffffffffffff16021790555060035f8473ffffffffffffffffffffffffffffffffffffffff1673ffffffffffffffffffffffffffffffffffffffff1681526020019081526020015f2081908060018154018082558091505060019003905f5260205f20015f90919091909150558273ffffffffffffffffffffffffffffffffffffffff167feb5476790d1d39c8b19dd28e329f20439f6b16bc912c68590eab27cbd4466b2c6002838154811061098557610984612839565b5b905f5260205f2090600302015f016040516109a09190612a70565b60405180910390a2600191506109c4565b80806109bc90612abd565b915050610774565b5080610a05576040517f08c379a00000000000000000000000000000000000000000000000000000000081526004016109fc90612b74565b60405180910390fd5b505050565b5f805f9054906101000a900473ffffffffffffffffffffffffffffffffffffffff1673ffffffffffffffffffffffffffffffffffffffff163373ffffffffffffffffffffffffffffffffffffffff161480610ab1575060015f9054906101000a900473ffffffffffffffffffffffffffffffffffffffff1673ffffffffffffffffffffffffffffffffffffffff163373ffffffffffffffffffffffffffffffffffffffff16145b610af0576040517f08c379a0000000000000000000000000000000000000000000000000000000008152600401610ae790612697565b60405180910390fd5b600160149054906101000a900460ff16610b3f576040517f08c379a0000000000000000000000000000000000000000000000000000000008152600401610b3690612c02565b60405180910390fd5b5f604051806080016040528087815260200186815260200185151581526020018473ffffffffffffffffffffffffffffffffffffffff168152509050600281908060018154018082558091505060019003905f5260205f2090600302015f909190919091505f820151815f019081610bb79190612dab565b50602082015181600101556040820151816002015f6101000a81548160ff02191690831515021790555060608201518160020160016101000a81548173ffffffffffffffffffffffffffffffffffffffff021916908373ffffffffffffffffffffffffffffffffffffffff160217905550505060035f8473ffffffffffffffffffffffffffffffffffffffff1673ffffffffffffffffffffffffffffffffffffffff1681526020019081526020015f206001600280549050610c799190612e7a565b908060018154018082558091505060019003905f5260205f20015f90919091909150558273ffffffffffffffffffffffffffffffffffffffff167fb69ee633e44efc83a2a42766fd6dc214c73784d0f7c51020cc6a59f20e19ba26878787604051610ce693929190612ead565b60405180910390a26001600280549050610d009190612e7a565b915050949350505050565b60605f805f6002805490508510610d57576040517f08c379a0000000000000000000000000000000000000000000000000000000008152600401610d4e90612f33565b60405180910390fd5b5f60028681548110610d6c57610d6b612839565b5b905f5260205f2090600302016040518060800160405290815f82018054610d9290612893565b80601f0160208091040260200160405190810160405280929190818152602001828054610dbe90612893565b8015610e095780601f10610de057610100808354040283529160200191610e09565b820191905f5260205f20905b815481529060010190602001808311610dec57829003601f168201915b5050505050815260200160018201548152602001600282015f9054906101000a900460ff161515151581526020016002820160019054906101000a900473ffffffffffffffffffffffffffffffffffffffff1673ffffffffffffffffffffffffffffffffffffffff1673ffffffffffffffffffffffffffffffffffffffff16815250509050805f01518160200151826040015183606001519450945094509450509193509193565b600160149054906101000a900460ff1681565b60028181548110610ed3575f80fd5b905f5260205f2090600302015f91509050805f018054610ef290612893565b80601f0160208091040260200160405190810160405280929190818152602001828054610f1e90612893565b8015610f695780601f10610f4057610100808354040283529160200191610f69565b820191905f5260205f20905b815481529060010190602001808311610f4c57829003601f168201915b505050505090806001015490806002015f9054906101000a900460ff16908060020160019054906101000a900473ffffffffffffffffffffffffffffffffffffffff16905084565b5f8054906101000a900473ffffffffffffffffffffffffffffffffffffffff1673ffffffffffffffffffffffffffffffffffffffff163373ffffffffffffffffffffffffffffffffffffffff161480611056575060015f9054906101000a900473ffffffffffffffffffffffffffffffffffffffff1673ffffffffffffffffffffffffffffffffffffffff163373ffffffffffffffffffffffffffffffffffffffff16145b611095576040517f08c379a000000000000000000000000000000000000000000000000000000000815260040161108c90612697565b60405180910390fd5b600160149054906101000a900460ff166110e4576040517f08c379a00000000000000000000000000000000000000000000000000000000081526004016110db90612fc1565b60405180910390fd5b5f600160146101000a81548160ff0219169083151502179055503373ffffffffffffffffffffffffffffffffffffffff167fd7cd4e5586cc81696a25f9f8984878b2ba504039d968729d346d89826ce8887060405160405180910390a2565b6060805f60035f3373ffffffffffffffffffffffffffffffffffffffff1673ffffffffffffffffffffffffffffffffffffffff1681526020019081526020015f208054806020026020016040519081016040528092919081815260200182805480156111cc57602002820191905f5260205f20905b8154815260200190600101908083116111b8575b505050505090505f815190505f8167ffffffffffffffff8111156111f3576111f261211e565b5b60405190808252806020026020018201604052801561122657816020015b60608152602001906001900390816112115790505b5090505f8267ffffffffffffffff8111156112445761124361211e565b5b6040519080825280602002602001820160405280156112725781602001602082028036833780820191505090505b5090505f5b838110156113bb575f85828151811061129357611292612839565b5b60200260200101519050600281815481106112b1576112b0612839565b5b905f5260205f2090600302015f0180546112ca90612893565b80601f01602080910402602001604051908101604052809291908181526020018280546112f690612893565b80156113415780601f1061131857610100808354040283529160200191611341565b820191905f5260205f20905b81548152906001019060200180831161132457829003601f168201915b505050505084838151811061135957611358612839565b5b60200260200101819052506002818154811061137857611377612839565b5b905f5260205f2090600302016001015483838151811061139b5761139a612839565b5b6020026020010181815250505080806113b390612abd565b915050611277565b50818195509550505050509091565b5f8054906101000a900473ffffffffffffffffffffffffffffffffffffffff1673ffffffffffffffffffffffffffffffffffffffff163373ffffffffffffffffffffffffffffffffffffffff16148061146f575060015f9054906101000a900473ffffffffffffffffffffffffffffffffffffffff1673ffffffffffffffffffffffffffffffffffffffff163373ffffffffffffffffffffffffffffffffffffffff16145b6114ae576040517f08c379a00000000000000000000000000000000000000000000000000000000081526004016114a590612697565b60405180910390fd5b60028054905082106114f5576040517f08c379a00000000000000000000000000000000000000000000000000000000081526004016114ec90612f33565b60405180910390fd5b5f6002838154811061150a57611509612839565b5b905f5260205f20906003020190503373ffffffffffffffffffffffffffffffffffffffff168160020160019054906101000a900473ffffffffffffffffffffffffffffffffffffffff1673ffffffffffffffffffffffffffffffffffffffff16146115aa576040517f08c379a00000000000000000000000000000000000000000000000000000000081526004016115a1906129bf565b60405180910390fd5b818160020160016101000a81548173ffffffffffffffffffffffffffffffffffffffff021916908373ffffffffffffffffffffffffffffffffffffffff16021790555060035f8373ffffffffffffffffffffffffffffffffffffffff1673ffffffffffffffffffffffffffffffffffffffff1681526020019081526020015f2083908060018154018082558091505060019003905f5260205f20015f90919091909150558173ffffffffffffffffffffffffffffffffffffffff167feb5476790d1d39c8b19dd28e329f20439f6b16bc912c68590eab27cbd4466b2c825f016040516116969190612a70565b60405180910390a2505050565b5f8054906101000a900473ffffffffffffffffffffffffffffffffffffffff1681565b5f805f90505b60028054905081101561171d57600281815481106116ed576116ec612839565b5b905f5260205f20906003020160010154826117089190612fdf565b9150808061171590612abd565b9150506116cc565b5090565b5f61172a6116c6565b90505f60028261173a919061303f565b90505f805f5b60028054905081101561192257838310801561175b57508382105b1561190f578183111561178f5760015f9054906101000a900473ffffffffffffffffffffffffffffffffffffffff166117b0565b5f8054906101000a900473ffffffffffffffffffffffffffffffffffffffff165b600282815481106117c4576117c3612839565b5b905f5260205f20906003020160020160016101000a81548173ffffffffffffffffffffffffffffffffffffffff021916908373ffffffffffffffffffffffffffffffffffffffff1602179055505f8054906101000a900473ffffffffffffffffffffffffffffffffffffffff1673ffffffffffffffffffffffffffffffffffffffff166002828154811061185b5761185a612839565b5b905f5260205f20906003020160020160019054906101000a900473ffffffffffffffffffffffffffffffffffffffff1673ffffffffffffffffffffffffffffffffffffffff16036118dc57600281815481106118ba576118b9612839565b5b905f5260205f20906003020160010154836118d59190612fdf565b925061190e565b600281815481106118f0576118ef612839565b5b905f5260205f209060030201600101548261190b9190612fdf565b91505b5b808061191a90612abd565b915050611740565b5060015f9054906101000a900473ffffffffffffffffffffffffffffffffffffffff1673ffffffffffffffffffffffffffffffffffffffff165f8054906101000a900473ffffffffffffffffffffffffffffffffffffffff1673ffffffffffffffffffffffffffffffffffffffff167fd3fe828503e2482f1db99eb8630720cbc4a509c71046320c3df868124ca2409184846040516119c292919061306f565b60405180910390a350505050565b5f6119d96116c6565b90505f6064603c836119eb9190613096565b6119f5919061303f565b90505f8183611a049190612e7a565b90505f805f5b600280549050811015611bec578483108015611a2557508382105b15611bd95781831115611a595760015f9054906101000a900473ffffffffffffffffffffffffffffffffffffffff16611a7a565b5f8054906101000a900473ffffffffffffffffffffffffffffffffffffffff165b60028281548110611a8e57611a8d612839565b5b905f5260205f20906003020160020160016101000a81548173ffffffffffffffffffffffffffffffffffffffff021916908373ffffffffffffffffffffffffffffffffffffffff1602179055505f8054906101000a900473ffffffffffffffffffffffffffffffffffffffff1673ffffffffffffffffffffffffffffffffffffffff1660028281548110611b2557611b24612839565b5b905f5260205f20906003020160020160019054906101000a900473ffffffffffffffffffffffffffffffffffffffff1673ffffffffffffffffffffffffffffffffffffffff1603611ba65760028181548110611b8457611b83612839565b5b905f5260205f2090600302016001015483611b9f9190612fdf565b9250611bd8565b60028181548110611bba57611bb9612839565b5b905f5260205f2090600302016001015482611bd59190612fdf565b91505b5b8080611be490612abd565b915050611a0a565b5060015f9054906101000a900473ffffffffffffffffffffffffffffffffffffffff1673ffffffffffffffffffffffffffffffffffffffff165f8054906101000a900473ffffffffffffffffffffffffffffffffffffffff1673ffffffffffffffffffffffffffffffffffffffff167fd3fe828503e2482f1db99eb8630720cbc4a509c71046320c3df868124ca240918484604051611c8c92919061306f565b60405180910390a35050505050565b5f805f5b600280549050811015611e54575f8054906101000a900473ffffffffffffffffffffffffffffffffffffffff1673ffffffffffffffffffffffffffffffffffffffff1660028281548110611cf657611cf5612839565b5b905f5260205f20906003020160020160019054906101000a900473ffffffffffffffffffffffffffffffffffffffff1673ffffffffffffffffffffffffffffffffffffffff1603611d775760028181548110611d5557611d54612839565b5b905f5260205f2090600302016001015483611d709190612fdf565b9250611e41565b60015f9054906101000a900473ffffffffffffffffffffffffffffffffffffffff1673ffffffffffffffffffffffffffffffffffffffff1660028281548110611dc357611dc2612839565b5b905f5260205f20906003020160020160019054906101000a900473ffffffffffffffffffffffffffffffffffffffff1673ffffffffffffffffffffffffffffffffffffffff1603611e405760028181548110611e2257611e21612839565b5b905f5260205f2090600302016001015482611e3d9190612fdf565b91505b5b8080611e4c90612abd565b915050611c9f565b5060015f9054906101000a900473ffffffffffffffffffffffffffffffffffffffff1673ffffffffffffffffffffffffffffffffffffffff165f8054906101000a900473ffffffffffffffffffffffffffffffffffffffff1673ffffffffffffffffffffffffffffffffffffffff167fd3fe828503e2482f1db99eb8630720cbc4a509c71046320c3df868124ca240918484604051611ef492919061306f565b60405180910390a35050565b5f819050919050565b611f1281611f00565b82525050565b5f602082019050611f2b5f830184611f09565b92915050565b5f604051905090565b5f80fd5b5f80fd5b5f73ffffffffffffffffffffffffffffffffffffffff82169050919050565b5f611f6b82611f42565b9050919050565b611f7b81611f61565b8114611f85575f80fd5b50565b5f81359050611f9681611f72565b92915050565b5f60208284031215611fb157611fb0611f3a565b5b5f611fbe84828501611f88565b91505092915050565b5f81519050919050565b5f82825260208201905092915050565b5f819050602082019050919050565b611ff981611f00565b82525050565b5f61200a8383611ff0565b60208301905092915050565b5f602082019050919050565b5f61202c82611fc7565b6120368185611fd1565b935061204183611fe1565b805f5b838110156120715781516120588882611fff565b975061206383612016565b925050600181019050612044565b5085935050505092915050565b5f6020820190508181035f8301526120968184612022565b905092915050565b6120a781611f00565b81146120b1575f80fd5b50565b5f813590506120c28161209e565b92915050565b5f80604083850312156120de576120dd611f3a565b5b5f6120eb85828601611f88565b92505060206120fc858286016120b4565b9150509250929050565b5f80fd5b5f80fd5b5f601f19601f8301169050919050565b7f4e487b71000000000000000000000000000000000000000000000000000000005f52604160045260245ffd5b6121548261210e565b810181811067ffffffffffffffff821117156121735761217261211e565b5b80604052505050565b5f612185611f31565b9050612191828261214b565b919050565b5f67ffffffffffffffff8211156121b0576121af61211e565b5b6121b98261210e565b9050602081019050919050565b828183375f83830152505050565b5f6121e66121e184612196565b61217c565b9050828152602081018484840111156122025761220161210a565b5b61220d8482856121c6565b509392505050565b5f82601f83011261222957612228612106565b5b81356122398482602086016121d4565b91505092915050565b5f6020828403121561225757612256611f3a565b5b5f82013567ffffffffffffffff81111561227457612273611f3e565b5b61228084828501612215565b91505092915050565b61229281611f61565b82525050565b5f6020820190506122ab5f830184612289565b92915050565b5f80604083850312156122c7576122c6611f3a565b5b5f83013567ffffffffffffffff8111156122e4576122e3611f3e565b5b6122f085828601612215565b925050602061230185828601611f88565b9150509250929050565b5f8115159050919050565b61231f8161230b565b8114612329575f80fd5b50565b5f8135905061233a81612316565b92915050565b5f805f806080858703121561235857612357611f3a565b5b5f85013567ffffffffffffffff81111561237557612374611f3e565b5b61238187828801612215565b9450506020612392878288016120b4565b93505060406123a38782880161232c565b92505060606123b487828801611f88565b91505092959194509250565b5f602082840312156123d5576123d4611f3a565b5b5f6123e2848285016120b4565b91505092915050565b5f81519050919050565b5f82825260208201905092915050565b5f5b83811015612422578082015181840152602081019050612407565b5f8484015250505050565b5f612437826123eb565b61244181856123f5565b9350612451818560208601612405565b61245a8161210e565b840191505092915050565b61246e8161230b565b82525050565b5f6080820190508181035f83015261248c818761242d565b905061249b6020830186611f09565b6124a86040830185612465565b6124b56060830184612289565b95945050505050565b5f6020820190506124d15f830184612465565b92915050565b5f81519050919050565b5f82825260208201905092915050565b5f819050602082019050919050565b5f82825260208201905092915050565b5f61251a826123eb565b6125248185612500565b9350612534818560208601612405565b61253d8161210e565b840191505092915050565b5f6125538383612510565b905092915050565b5f602082019050919050565b5f612571826124d7565b61257b81856124e1565b93508360208202850161258d856124f1565b805f5b858110156125c857848403895281516125a98582612548565b94506125b48361255b565b925060208a01995050600181019050612590565b50829750879550505050505092915050565b5f6040820190508181035f8301526125f28185612567565b905081810360208301526126068184612022565b90509392505050565b5f806040838503121561262557612624611f3a565b5b5f612632858286016120b4565b925050602061264385828601611f88565b9150509250929050565b7f4e6f7420617574686f72697a65640000000000000000000000000000000000005f82015250565b5f612681600e836123f5565b915061268c8261264d565b602082019050919050565b5f6020820190508181035f8301526126ae81612675565b9050919050565b7f4d75737420696e697469617465206469766f726365206265666f7265206173735f8201527f657420646973747269627574696f6e0000000000000000000000000000000000602082015250565b5f61270f602f836123f5565b915061271a826126b5565b604082019050919050565b5f6020820190508181035f83015261273c81612703565b9050919050565b7f546f74616c2061737365742076616c7565206d757374206265206772656174655f8201527f72207468616e207a65726f000000000000000000000000000000000000000000602082015250565b5f61279d602b836123f5565b91506127a882612743565b604082019050919050565b5f6020820190508181035f8301526127ca81612791565b9050919050565b7f496e76616c696420646973747269627574696f6e206d6574686f6400000000005f82015250565b5f612805601b836123f5565b9150612810826127d1565b602082019050919050565b5f6020820190508181035f830152612832816127f9565b9050919050565b7f4e487b71000000000000000000000000000000000000000000000000000000005f52603260045260245ffd5b7f4e487b71000000000000000000000000000000000000000000000000000000005f52602260045260245ffd5b5f60028204905060018216806128aa57607f821691505b6020821081036128bd576128bc612866565b5b50919050565b5f81905092915050565b5f819050815f5260205f209050919050565b5f81546128eb81612893565b6128f581866128c3565b9450600182165f811461290f576001811461292457612956565b60ff1983168652811515820286019350612956565b61292d856128cd565b5f5b8381101561294e5781548189015260018201915060208101905061292f565b838801955050505b50505092915050565b5f61296a82846128df565b915081905092915050565b7f4e6f7420746865206173736574206f776e6572000000000000000000000000005f82015250565b5f6129a96013836123f5565b91506129b482612975565b602082019050919050565b5f6020820190508181035f8301526129d68161299d565b9050919050565b5f819050815f5260205f209050919050565b5f81546129fb81612893565b612a0581866123f5565b9450600182165f8114612a1f5760018114612a3557612a67565b60ff198316865281151560200286019350612a67565b612a3e856129dd565b5f5b83811015612a5f57815481890152600182019150602081019050612a40565b808801955050505b50505092915050565b5f6020820190508181035f830152612a8881846129ef565b905092915050565b7f4e487b71000000000000000000000000000000000000000000000000000000005f52601160045260245ffd5b5f612ac782611f00565b91507fffffffffffffffffffffffffffffffffffffffffffffffffffffffffffffffff8203612af957612af8612a90565b5b600182019050919050565b7f417373657420776974682074686520737065636966696564206e616d65206e6f5f8201527f7420666f756e6400000000000000000000000000000000000000000000000000602082015250565b5f612b5e6027836123f5565b9150612b6982612b04565b604082019050919050565b5f6020820190508181035f830152612b8b81612b52565b9050919050565b7f43616e6e6f742061646420617373657473206166746572206469766f726365205f8201527f696e6974696174696f6e00000000000000000000000000000000000000000000602082015250565b5f612bec602a836123f5565b9150612bf782612b92565b604082019050919050565b5f6020820190508181035f830152612c1981612be0565b9050919050565b5f6020601f8301049050919050565b5f82821b905092915050565b5f60088302612c6a7fffffffffffffffffffffffffffffffffffffffffffffffffffffffffffffffff82612c2f565b612c748683612c2f565b95508019841693508086168417925050509392505050565b5f819050919050565b5f612caf612caa612ca584611f00565b612c8c565b611f00565b9050919050565b5f819050919050565b612cc883612c95565b612cdc612cd482612cb6565b848454612c3b565b825550505050565b5f90565b612cf0612ce4565b612cfb818484612cbf565b505050565b5b81811015612d1e57612d135f82612ce8565b600181019050612d01565b5050565b601f821115612d6357612d34816129dd565b612d3d84612c20565b81016020851015612d4c578190505b612d60612d5885612c20565b830182612d00565b50505b505050565b5f82821c905092915050565b5f612d835f1984600802612d68565b1980831691505092915050565b5f612d9b8383612d74565b9150826002028217905092915050565b612db4826123eb565b67ffffffffffffffff811115612dcd57612dcc61211e565b5b612dd78254612893565b612de2828285612d22565b5f60209050601f831160018114612e13575f8415612e01578287015190505b612e0b8582612d90565b865550612e72565b601f198416612e21866129dd565b5f5b82811015612e4857848901518255600182019150602085019450602081019050612e23565b86831015612e655784890151612e61601f891682612d74565b8355505b6001600288020188555050505b505050505050565b5f612e8482611f00565b9150612e8f83611f00565b9250828203905081811115612ea757612ea6612a90565b5b92915050565b5f6060820190508181035f830152612ec5818661242d565b9050612ed46020830185611f09565b612ee16040830184612465565b949350505050565b7f496e76616c696420617373657420696e646578000000000000000000000000005f82015250565b5f612f1d6013836123f5565b9150612f2882612ee9565b602082019050919050565b5f6020820190508181035f830152612f4a81612f11565b9050919050565b7f4469766f72636520616c726561647920696e69746961746564206f72206e6f745f8201527f206d617272696564000000000000000000000000000000000000000000000000602082015250565b5f612fab6028836123f5565b9150612fb682612f51565b604082019050919050565b5f6020820190508181035f830152612fd881612f9f565b9050919050565b5f612fe982611f00565b9150612ff483611f00565b925082820190508082111561300c5761300b612a90565b5b92915050565b7f4e487b71000000000000000000000000000000000000000000000000000000005f52601260045260245ffd5b5f61304982611f00565b915061305483611f00565b92508261306457613063613012565b5b828204905092915050565b5f6040820190506130825f830185611f09565b61308f6020830184611f09565b9392505050565b5f6130a082611f00565b91506130ab83611f00565b92508282026130b981611f00565b915082820484148315176130d0576130cf612a90565b5b509291505056fea26469706673582212207d16561c96c308eb19c857c8673de365166ed736e24cf4a1958e06366f9c8f4f64736f6c63430008150033",
  "immutableReferences": {},
  "source": "pragma solidity ^0.8.21;\n\ncontract MarriageContract {\n    address public spouse1;\n    address public spouse2;\n    bool public isMarried;\n\n    struct Asset {\n        string name;\n        uint256 value;\n        bool isTokenized;\n        address owner;\n    }\n     \n    Asset[] public assets;\n    mapping(address => uint256[]) public ownerAssets; // Mapping to track assets by owner\n    \n    event Marriage(address indexed spouse1, address indexed spouse2);\n    event DivorceInitiated(address indexed spouse);\n    event Divorce(address indexed spouse1, address indexed spouse2, uint256 spouse1Share, uint256 spouse2Share);\n    event AssetAdded(string name, uint256 value, bool isTokenized, address indexed owner);\n    event AssetTransferred(string name, address indexed newOwner);\n\n    modifier onlySpouses() {\n        require(msg.sender == spouse1 || msg.sender == spouse2, \"Not authorized\");\n        _;\n    }\n\n    constructor(address _spouse1, address _spouse2) {\n        spouse1 = _spouse1;\n        spouse2 = _spouse2;\n        isMarried = true;\n        emit Marriage(spouse1, spouse2);\n    }\n\n    function addAsset(string memory name, uint256 value, bool isTokenized, address owner) public onlySpouses returns (uint256) {\n        require(isMarried, \"Cannot add assets after divorce initiation\");\n        Asset memory newAsset = Asset(name, value, isTokenized, owner);\n        assets.push(newAsset);\n        ownerAssets[owner].push(assets.length - 1); // Store the index of the asset in the owner's list\n        emit AssetAdded(name, value, isTokenized, owner);\n        return assets.length - 1; // Return the index of the newly added asset\n    }\n\n    function listAssets() public view returns (string[] memory assetNames, uint256[] memory assetValues) {\n        uint256[] memory ownedAssetIndexes = ownerAssets[msg.sender];\n        uint256 count = ownedAssetIndexes.length;\n    \n        string[] memory names = new string[](count);\n        uint256[] memory values = new uint256[](count);\n    \n        for (uint256 i = 0; i < count; i++) {\n            uint256 assetIndex = ownedAssetIndexes[i];\n            names[i] = assets[assetIndex].name;\n            values[i] = assets[assetIndex].value;\n        }\n    \n        return (names, values);\n    }\n\n    function transferAssetByName(string memory assetName, address newOwner) public onlySpouses {\n        bool assetFound = false;\n        for (uint256 i = 0; i < assets.length; i++) {\n            if (keccak256(bytes(assets[i].name)) == keccak256(bytes(assetName))) {\n                require(assets[i].owner == msg.sender, \"Not the asset owner\");\n\n                assets[i].owner = newOwner;\n                ownerAssets[newOwner].push(i);\n                emit AssetTransferred(assets[i].name, newOwner);\n\n                assetFound = true;\n                break;\n            }\n        }\n        require(assetFound, \"Asset with the specified name not found\");\n    }\n\n    function transferAsset(uint256 assetIndex, address newOwner) public onlySpouses {\n        require(assetIndex < assets.length, \"Invalid asset index\");\n        Asset storage asset = assets[assetIndex];\n        require(asset.owner == msg.sender, \"Not the asset owner\");\n        asset.owner = newOwner;\n        ownerAssets[newOwner].push(assetIndex);\n        emit AssetTransferred(asset.name, newOwner);\n    }\n\n    function initiateDivorce() public onlySpouses {\n        require(isMarried, \"Divorce already initiated or not married\");\n        isMarried = false;\n        emit DivorceInitiated(msg.sender);\n    }\n\n    function distributeAssets(string memory method) public onlySpouses {\n        require(!isMarried, \"Must initiate divorce before asset distribution\");\n\n        uint256 totalValue = _getTotalAssetValue();\n        require(totalValue > 0, \"Total asset value must be greater than zero\");\n\n        if (keccak256(bytes(method)) == keccak256(bytes(\"equal\"))) {\n            _distributeEqually();\n        } else if (keccak256(bytes(method)) == keccak256(bytes(\"proportional\"))) {\n            _distributeProportionally();\n        } else if (keccak256(bytes(method)) == keccak256(bytes(\"ownership\"))) {\n            _distributeByOwnership();\n        } else {\n            revert(\"Invalid distribution method\");\n        }\n    }\n\n    function _distributeEqually() private {\n        uint256 totalValue = _getTotalAssetValue();\n        uint256 halfValue = totalValue / 2;\n\n        uint256 spouse1Share = 0;\n        uint256 spouse2Share = 0;\n\n        for (uint256 i = 0; i < assets.length; i++) {\n            if (spouse1Share < halfValue && spouse2Share < halfValue) {\n                assets[i].owner = (spouse1Share <= spouse2Share) ? spouse1 : spouse2;\n                if (assets[i].owner == spouse1) {\n                    spouse1Share += assets[i].value;\n                } else {\n                    spouse2Share += assets[i].value;\n                }\n            }\n        }\n\n        emit Divorce(spouse1, spouse2, spouse1Share, spouse2Share);\n    }\n\n    function _distributeProportionally() private {\n        uint256 totalValue = _getTotalAssetValue();\n        uint256 spouse1Share = (totalValue * 60) / 100;  // Example: 60% to spouse1\n        uint256 spouse2Share = totalValue - spouse1Share;  // 40% to spouse2\n\n        uint256 currentSpouse1Share = 0;\n        uint256 currentSpouse2Share = 0;\n\n        for (uint256 i = 0; i < assets.length; i++) {\n            if (currentSpouse1Share < spouse1Share && currentSpouse2Share < spouse2Share) {\n                assets[i].owner = (currentSpouse1Share <= currentSpouse2Share) ? spouse1 : spouse2;\n                if (assets[i].owner == spouse1) {\n                    currentSpouse1Share += assets[i].value;\n                } else {\n                    currentSpouse2Share += assets[i].value;\n                }\n            }\n        }\n\n        emit Divorce(spouse1, spouse2, currentSpouse1Share, currentSpouse2Share);\n    }\n\n    function _distributeByOwnership() private {\n        uint256 spouse1Share = 0;\n        uint256 spouse2Share = 0;\n\n        for (uint256 i = 0; i < assets.length; i++) {\n            if (assets[i].owner == spouse1) {\n                spouse1Share += assets[i].value;\n            } else if (assets[i].owner == spouse2) {\n                spouse2Share += assets[i].value;\n            }\n        }\n\n        emit Divorce(spouse1, spouse2, spouse1Share, spouse2Share);\n    }\n\n    function _getTotalAssetValue() private view returns (uint256 totalValue) {\n        for (uint256 i = 0; i < assets.length; i++) {\n            totalValue += assets[i].value;\n        }\n    }\n\n    function getAssetsByOwner(address owner) public view returns (uint256[] memory) {\n        return ownerAssets[owner];\n    }\n\n    function getAssetDetails(uint256 assetIndex) public view returns (string memory name, uint256 value, bool isTokenized, address owner) {\n        require(assetIndex < assets.length, \"Invalid asset index\");\n        Asset memory asset = assets[assetIndex];\n        return (asset.name, asset.value, asset.isTokenized, asset.owner);\n    }\n\n    function getAssetsCount() public view returns (uint256) {\n        return assets.length;\n    }\n}\n",
  "sourcePath": "C:\\Users\\sarth\\Projects\\smart-marriage-contract\\backend\\contracts\\marriage.sol",
  "compiler": {
    "name": "solc",
    "version": "0.8.21+commit.d9974bed.Emscripten.clang"
  },
  "schemaVersion": "3.4.16",
  "updatedAt": "2024-11-12T14:49:12.108Z",
  "networkType": "ethereum",
  "devdoc": {
    "kind": "dev",
    "methods": {},
    "version": 1
  },
  "userdoc": {
    "kind": "user",
    "methods": {},
    "version": 1
  }
}